{
  "contractName": "ElectionController",
  "abi": [
    {
      "inputs": [
        {
          "internalType": "uint256",
          "name": "_electionId",
          "type": "uint256"
        },
        {
          "internalType": "string",
          "name": "_electionName",
          "type": "string"
        },
        {
          "internalType": "address",
          "name": "_voterRegistry",
          "type": "address"
        },
        {
          "internalType": "address",
          "name": "_votingBooth",
          "type": "address"
        },
        {
          "internalType": "address",
          "name": "_resultsTallier",
          "type": "address"
        }
      ],
      "stateMutability": "nonpayable",
      "type": "constructor"
    },
    {
      "inputs": [
        {
          "internalType": "address",
          "name": "owner",
          "type": "address"
        }
      ],
      "name": "OwnableInvalidOwner",
      "type": "error"
    },
    {
      "inputs": [
        {
          "internalType": "address",
          "name": "account",
          "type": "address"
        }
      ],
      "name": "OwnableUnauthorizedAccount",
      "type": "error"
    },
    {
      "anonymous": false,
      "inputs": [
        {
          "indexed": true,
          "internalType": "uint256",
          "name": "candidateId",
          "type": "uint256"
        },
        {
          "indexed": false,
          "internalType": "uint256",
          "name": "constituencyId",
          "type": "uint256"
        }
      ],
      "name": "CandidateRegisteredViaController",
      "type": "event"
    },
    {
      "anonymous": false,
      "inputs": [
        {
          "indexed": false,
          "internalType": "uint256",
          "name": "closeTime",
          "type": "uint256"
        }
      ],
      "name": "ElectionClosed",
      "type": "event"
    },
    {
      "anonymous": false,
      "inputs": [
        {
          "indexed": false,
          "internalType": "uint256",
          "name": "startTime",
          "type": "uint256"
        },
        {
          "indexed": false,
          "internalType": "uint256",
          "name": "endTime",
          "type": "uint256"
        }
      ],
      "name": "ElectionStarted",
      "type": "event"
    },
    {
      "anonymous": false,
      "inputs": [
        {
          "indexed": true,
          "internalType": "address",
          "name": "previousOwner",
          "type": "address"
        },
        {
          "indexed": true,
          "internalType": "address",
          "name": "newOwner",
          "type": "address"
        }
      ],
      "name": "OwnershipTransferred",
      "type": "event"
    },
    {
      "anonymous": false,
      "inputs": [
        {
          "indexed": true,
          "internalType": "enum ElectionController.ElectionPhase",
          "name": "newPhase",
          "type": "uint8"
        },
        {
          "indexed": false,
          "internalType": "uint256",
          "name": "timestamp",
          "type": "uint256"
        }
      ],
      "name": "PhaseChanged",
      "type": "event"
    },
    {
      "anonymous": false,
      "inputs": [
        {
          "indexed": false,
          "internalType": "uint256",
          "name": "timestamp",
          "type": "uint256"
        }
      ],
      "name": "ResultsTalliedAndFinalized",
      "type": "event"
    },
    {
      "anonymous": false,
      "inputs": [
        {
          "indexed": true,
          "internalType": "uint256",
          "name": "candidateId",
          "type": "uint256"
        },
        {
          "indexed": false,
          "internalType": "uint256",
          "name": "constituencyId",
          "type": "uint256"
        }
      ],
      "name": "VoteSubmittedViaController",
      "type": "event"
    },
    {
      "anonymous": false,
      "inputs": [
        {
          "indexed": true,
          "internalType": "bytes32",
          "name": "voterHash",
          "type": "bytes32"
        },
        {
          "indexed": false,
          "internalType": "uint256",
          "name": "constituencyId",
          "type": "uint256"
        }
      ],
      "name": "VoterRegisteredViaController",
      "type": "event"
    },
    {
      "inputs": [],
      "name": "currentPhase",
      "outputs": [
        {
          "internalType": "enum ElectionController.ElectionPhase",
          "name": "",
          "type": "uint8"
        }
      ],
      "stateMutability": "view",
      "type": "function",
      "constant": true
    },
    {
      "inputs": [],
      "name": "electionId",
      "outputs": [
        {
          "internalType": "uint256",
          "name": "",
          "type": "uint256"
        }
      ],
      "stateMutability": "view",
      "type": "function",
      "constant": true
    },
    {
      "inputs": [],
      "name": "electionName",
      "outputs": [
        {
          "internalType": "string",
          "name": "",
          "type": "string"
        }
      ],
      "stateMutability": "view",
      "type": "function",
      "constant": true
    },
    {
      "inputs": [],
      "name": "owner",
      "outputs": [
        {
          "internalType": "address",
          "name": "",
          "type": "address"
        }
      ],
      "stateMutability": "view",
      "type": "function",
      "constant": true
    },
    {
      "inputs": [],
      "name": "renounceOwnership",
      "outputs": [],
      "stateMutability": "nonpayable",
      "type": "function"
    },
    {
      "inputs": [],
      "name": "resultsFinalizedAt",
      "outputs": [
        {
          "internalType": "uint256",
          "name": "",
          "type": "uint256"
        }
      ],
      "stateMutability": "view",
      "type": "function",
      "constant": true
    },
    {
      "inputs": [],
      "name": "resultsTallier",
      "outputs": [
        {
          "internalType": "contract ResultsTallier",
          "name": "",
          "type": "address"
        }
      ],
      "stateMutability": "view",
      "type": "function",
      "constant": true
    },
    {
      "inputs": [],
      "name": "setupCompletedAt",
      "outputs": [
        {
          "internalType": "uint256",
          "name": "",
          "type": "uint256"
        }
      ],
      "stateMutability": "view",
      "type": "function",
      "constant": true
    },
    {
      "inputs": [
        {
          "internalType": "address",
          "name": "newOwner",
          "type": "address"
        }
      ],
      "name": "transferOwnership",
      "outputs": [],
      "stateMutability": "nonpayable",
      "type": "function"
    },
    {
      "inputs": [],
      "name": "voterRegistry",
      "outputs": [
        {
          "internalType": "contract VoterRegistry",
          "name": "",
          "type": "address"
        }
      ],
      "stateMutability": "view",
      "type": "function",
      "constant": true
    },
    {
      "inputs": [],
      "name": "votingBooth",
      "outputs": [
        {
          "internalType": "contract VotingBooth",
          "name": "",
          "type": "address"
        }
      ],
      "stateMutability": "view",
      "type": "function",
      "constant": true
    },
    {
      "inputs": [],
      "name": "votingClosedAt",
      "outputs": [
        {
          "internalType": "uint256",
          "name": "",
          "type": "uint256"
        }
      ],
      "stateMutability": "view",
      "type": "function",
      "constant": true
    },
    {
      "inputs": [],
      "name": "votingStartedAt",
      "outputs": [
        {
          "internalType": "uint256",
          "name": "",
          "type": "uint256"
        }
      ],
      "stateMutability": "view",
      "type": "function",
      "constant": true
    },
    {
      "inputs": [
        {
          "internalType": "bytes32",
          "name": "voterHash",
          "type": "bytes32"
        },
        {
          "internalType": "uint256",
          "name": "constituencyId",
          "type": "uint256"
        }
      ],
      "name": "registerVoter",
      "outputs": [],
      "stateMutability": "nonpayable",
      "type": "function"
    },
    {
      "inputs": [
        {
          "internalType": "uint256",
          "name": "candidateId",
          "type": "uint256"
        },
        {
          "internalType": "uint256",
          "name": "constituencyId",
          "type": "uint256"
        }
      ],
      "name": "registerCandidate",
      "outputs": [],
      "stateMutability": "nonpayable",
      "type": "function"
    },
    {
      "inputs": [
        {
          "internalType": "uint256[]",
          "name": "candidateIds",
          "type": "uint256[]"
        },
        {
          "internalType": "uint256[]",
          "name": "constituencyIds",
          "type": "uint256[]"
        }
      ],
      "name": "batchRegisterCandidates",
      "outputs": [],
      "stateMutability": "nonpayable",
      "type": "function"
    },
    {
      "inputs": [],
      "name": "completeSetup",
      "outputs": [],
      "stateMutability": "nonpayable",
      "type": "function"
    },
    {
      "inputs": [
        {
          "internalType": "uint256",
          "name": "startTime",
          "type": "uint256"
        },
        {
          "internalType": "uint256",
          "name": "endTime",
          "type": "uint256"
        }
      ],
      "name": "startElection",
      "outputs": [],
      "stateMutability": "nonpayable",
      "type": "function"
    },
    {
      "inputs": [
        {
          "internalType": "bytes32",
          "name": "voterHash",
          "type": "bytes32"
        },
        {
          "internalType": "uint256",
          "name": "candidateId",
          "type": "uint256"
        },
        {
          "internalType": "uint256",
          "name": "constituencyId",
          "type": "uint256"
        }
      ],
      "name": "submitVote",
      "outputs": [],
      "stateMutability": "nonpayable",
      "type": "function"
    },
    {
      "inputs": [],
      "name": "closeElection",
      "outputs": [],
      "stateMutability": "nonpayable",
      "type": "function"
    },
    {
      "inputs": [
        {
          "internalType": "uint256[]",
          "name": "constituencyIds",
          "type": "uint256[]"
        },
        {
          "internalType": "uint256[][]",
          "name": "candidateIdsPerConstituency",
          "type": "uint256[][]"
        },
        {
          "internalType": "uint256[]",
          "name": "expectedVotesPerConstituency",
          "type": "uint256[]"
        }
      ],
      "name": "tallyAndFinalize",
      "outputs": [],
      "stateMutability": "nonpayable",
      "type": "function"
    },
    {
      "inputs": [],
      "name": "getCurrentPhase",
      "outputs": [
        {
          "internalType": "string",
          "name": "",
          "type": "string"
        }
      ],
      "stateMutability": "view",
      "type": "function",
      "constant": true
    },
    {
      "inputs": [],
      "name": "isVotingOpen",
      "outputs": [
        {
          "internalType": "bool",
          "name": "",
          "type": "bool"
        }
      ],
      "stateMutability": "view",
      "type": "function",
      "constant": true
    },
    {
      "inputs": [],
      "name": "getElectionSummary",
      "outputs": [
        {
          "internalType": "uint256",
          "name": "_electionId",
          "type": "uint256"
        },
        {
          "internalType": "string",
          "name": "_electionName",
          "type": "string"
        },
        {
          "internalType": "string",
          "name": "phase",
          "type": "string"
        },
        {
          "internalType": "uint256",
          "name": "totalRegistered",
          "type": "uint256"
        },
        {
          "internalType": "uint256",
          "name": "totalVoted",
          "type": "uint256"
        },
        {
          "internalType": "uint256",
          "name": "turnoutBasisPoints",
          "type": "uint256"
        },
        {
          "internalType": "bool",
          "name": "votingIsOpen",
          "type": "bool"
        },
        {
          "internalType": "bool",
          "name": "resultsAreFinalized",
          "type": "bool"
        }
      ],
      "stateMutability": "view",
      "type": "function",
      "constant": true
    },
    {
      "inputs": [],
      "name": "getPhaseTimestamps",
      "outputs": [
        {
          "internalType": "uint256",
          "name": "_setupCompletedAt",
          "type": "uint256"
        },
        {
          "internalType": "uint256",
          "name": "_votingStartedAt",
          "type": "uint256"
        },
        {
          "internalType": "uint256",
          "name": "_votingClosedAt",
          "type": "uint256"
        },
        {
          "internalType": "uint256",
          "name": "_resultsFinalizedAt",
          "type": "uint256"
        }
      ],
      "stateMutability": "view",
      "type": "function",
      "constant": true
    }
  ],
  "bytecode": "0x60806040523480156200001157600080fd5b50604051620024c9380380620024c9833981016040819052620000349162000290565b33806200005c57604051631e4fbdf760e01b8152600060048201526024015b60405180910390fd5b62000067816200020d565b506001600160a01b038316620000d55760405162461bcd60e51b815260206004820152602c60248201527f456c656374696f6e436f6e74726f6c6c65723a20696e76616c6964207265676960448201526b73747279206164647265737360a01b606482015260840162000053565b6001600160a01b0382166200013f5760405162461bcd60e51b815260206004820152602960248201527f456c656374696f6e436f6e74726f6c6c65723a20696e76616c696420626f6f7460448201526868206164647265737360b81b606482015260840162000053565b6001600160a01b038116620001ab5760405162461bcd60e51b815260206004820152602b60248201527f456c656374696f6e436f6e74726f6c6c65723a20696e76616c69642074616c6c60448201526a696572206164647265737360a81b606482015260840162000053565b60048590556005620001be858262000437565b50600180546001600160a01b03199081166001600160a01b03958616179091556002805490911692841692909217909155600380546001600160a81b0319169190921617905550620005039050565b600080546001600160a01b038381166001600160a01b0319831681178455604051919092169283917f8be0079c531659141344cd1fd0a4f28419497f9722a3daafe3b4186f6b6457e09190a35050565b634e487b7160e01b600052604160045260246000fd5b80516001600160a01b03811681146200028b57600080fd5b919050565b600080600080600060a08688031215620002a957600080fd5b8551602080880151919650906001600160401b0380821115620002cb57600080fd5b818901915089601f830112620002e057600080fd5b815181811115620002f557620002f56200025d565b604051601f8201601f19908116603f011681019083821181831017156200032057620003206200025d565b816040528281528c868487010111156200033957600080fd5b600093505b828410156200035d57848401860151818501870152928501926200033e565b60008684830101528099505050505050506200037c6040870162000273565b92506200038c6060870162000273565b91506200039c6080870162000273565b90509295509295909350565b600181811c90821680620003bd57607f821691505b602082108103620003de57634e487b7160e01b600052602260045260246000fd5b50919050565b601f8211156200043257600081815260208120601f850160051c810160208610156200040d5750805b601f850160051c820191505b818110156200042e5782815560010162000419565b5050505b505050565b81516001600160401b038111156200045357620004536200025d565b6200046b81620004648454620003a8565b84620003e4565b602080601f831160018114620004a357600084156200048a5750858301515b600019600386901b1c1916600185901b1785556200042e565b600085815260208120601f198616915b82811015620004d457888601518255948401946001909101908401620004b3565b5085821015620004f35787850151600019600388901b60f8161c191681555b5050505050600190811b01905550565b611fb680620005136000396000f3fe608060405234801561001057600080fd5b50600436106101735760003560e01c806385e8e7a7116100de578063d7cddc1a11610097578063f2fde38b11610071578063f2fde38b14610310578063f5c19f4e14610323578063fa7f1bae1461032c578063fd72ad251461034457600080fd5b8063d7cddc1a146102d7578063d95f7b03146102ea578063e7d4ca71146102fd57600080fd5b806385e8e7a7146102725780638aea8f71146102875780638da5cb5b1461028f578063a3a40ea5146102a0578063b74954f4146102a8578063be60040e146102c457600080fd5b80635b5153b3116101305780635b5153b3146102085780635d6e5052146102115780636c6c32d014610224578063715018a61461022c578063741873811461023457806379e09e591461025f57600080fd5b8063051364d414610178578063055ad42e146101945780630b5b7822146101b55780630c54b463146101be57806317d821f8146101d35780631802cdc8146101dc575b600080fd5b61018160045481565b6040519081526020015b60405180910390f35b6003546101a890600160a01b900460ff1681565b60405161018b91906119b5565b61018160085481565b6101d16101cc3660046119dd565b610357565b005b61018160075481565b60065460075460085460095460408051948552602085019390935291830152606082015260800161018b565b61018160065481565b6101d161021f3660046119dd565b6105c0565b6101d16106f9565b6101d161088b565b600254610247906001600160a01b031681565b6040516001600160a01b03909116815260200161018b565b6101d161026d3660046119dd565b61089f565b61027a6109d8565b60405161018b9190611a4f565b6101d1610a66565b6000546001600160a01b0316610247565b61027a610b8e565b6102b0610d10565b60405161018b989796959493929190611a69565b600154610247906001600160a01b031681565b6101d16102e5366004611ac7565b6110c4565b6101d16102f8366004611b3f565b61120a565b600354610247906001600160a01b031681565b6101d161031e366004611bd9565b61154b565b61018160095481565b610334611589565b604051901515815260200161018b565b6101d1610352366004611c02565b61165d565b61035f6117f6565b600180600354600160a01b900460ff1660048111156103805761038061199f565b146103aa600360149054906101000a900460ff1660048111156103a5576103a561199f565b611823565b6103bf8360048111156103a5576103a561199f565b6040516020016103d0929190611c6e565b604051602081830303815290604052906104065760405162461bcd60e51b81526004016103fd9190611a4f565b60405180910390fd5b508282116104655760405162461bcd60e51b815260206004820152602660248201527f456c656374696f6e436f6e74726f6c6c65723a20696e76616c69642074696d656044820152652072616e676560d01b60648201526084016103fd565b428310156104ce5760405162461bcd60e51b815260206004820152603060248201527f456c656374696f6e436f6e74726f6c6c65723a2073746172742074696d65206d60448201526f75737420626520696e2066757475726560801b60648201526084016103fd565b6002546040516364cae09160e01b815260048101859052602481018490526001600160a01b03909116906364cae09190604401600060405180830381600087803b15801561051b57600080fd5b505af115801561052f573d6000803e3d6000fd5b505042600755505060038054600160a11b60ff60a01b1990911617905560408051848152602081018490527fff6a30dd22f5e8b783044c7d895a6e8592b55c56f139978d44dc39daf596731f910160405180910390a160026040514281527fe65264342b0c60a079c9c89c73855ac517088348498810186d8c8ae6c7848ba1906020015b60405180910390a2505050565b6105c86117f6565b600080600354600160a01b900460ff1660048111156105e9576105e961199f565b1461060e600360149054906101000a900460ff1660048111156103a5576103a561199f565b6106238360048111156103a5576103a561199f565b604051602001610634929190611c6e565b604051602081830303815290604052906106615760405162461bcd60e51b81526004016103fd9190611a4f565b50600254604051632eb7282960e11b815260048101859052602481018490526001600160a01b0390911690635d6e505290604401600060405180830381600087803b1580156106af57600080fd5b505af11580156106c3573d6000803e3d6000fd5b50505050827fd45e07f0b6dee4250d1421ff970b09b77d7915aca263ecf3bc78acbfc40e8522836040516105b391815260200190565b6107016117f6565b600280600354600160a01b900460ff1660048111156107225761072261199f565b14610747600360149054906101000a900460ff1660048111156103a5576103a561199f565b61075c8360048111156103a5576103a561199f565b60405160200161076d929190611c6e565b6040516020818303038152906040529061079a5760405162461bcd60e51b81526004016103fd9190611a4f565b50600260009054906101000a90046001600160a01b03166001600160a01b031663c631b2926040518163ffffffff1660e01b8152600401600060405180830381600087803b1580156107eb57600080fd5b505af11580156107ff573d6000803e3d6000fd5b505042600855505060038054819060ff60a01b1916600160a01b8202179055506040514281527f393c4b8e62f1195313cf17dcf00793c668ddfc35881cd8015559c074f6d61e839060200160405180910390a160035b6040514281527fe65264342b0c60a079c9c89c73855ac517088348498810186d8c8ae6c7848ba19060200160405180910390a250565b6108936117f6565b61089d600061194f565b565b6108a76117f6565b600080600354600160a01b900460ff1660048111156108c8576108c861199f565b146108ed600360149054906101000a900460ff1660048111156103a5576103a561199f565b6109028360048111156103a5576103a561199f565b604051602001610913929190611c6e565b604051602081830303815290604052906109405760405162461bcd60e51b81526004016103fd9190611a4f565b506001546040516379e09e5960e01b815260048101859052602481018490526001600160a01b03909116906379e09e5990604401600060405180830381600087803b15801561098e57600080fd5b505af11580156109a2573d6000803e3d6000fd5b50505050827f5707cf3a0594632c0adb20dd0f726142fcd9149a488aaf0a2d46334820cfc67a836040516105b391815260200190565b600580546109e590611cfb565b80601f0160208091040260200160405190810160405280929190818152602001828054610a1190611cfb565b8015610a5e5780601f10610a3357610100808354040283529160200191610a5e565b820191906000526020600020905b815481529060010190602001808311610a4157829003601f168201915b505050505081565b610a6e6117f6565b600080600354600160a01b900460ff166004811115610a8f57610a8f61199f565b14610ab4600360149054906101000a900460ff1660048111156103a5576103a561199f565b610ac98360048111156103a5576103a561199f565b604051602001610ada929190611c6e565b60405160208183030381529060405290610b075760405162461bcd60e51b81526004016103fd9190611a4f565b50600160009054906101000a90046001600160a01b03166001600160a01b0316637dc673bc6040518163ffffffff1660e01b8152600401600060405180830381600087803b158015610b5857600080fd5b505af1158015610b6c573d6000803e3d6000fd5b50504260065550506003805460ff60a01b1916600160a01b1790556001610855565b60606000600354600160a01b900460ff166004811115610bb057610bb061199f565b03610bd55750604080518082019091526005815264053657475760dc1b602082015290565b6001600354600160a01b900460ff166004811115610bf557610bf561199f565b03610c1a5750604080518082019091526005815264526561647960d81b602082015290565b6002600354600160a01b900460ff166004811115610c3a57610c3a61199f565b03610c60575060408051808201909152600681526541637469766560d01b602082015290565b60038054600160a01b900460ff166004811115610c7f57610c7f61199f565b03610ca5575060408051808201909152600681526510db1bdcd95960d21b602082015290565b6004600354600160a01b900460ff166004811115610cc557610cc561199f565b03610cee5750604080518082019091526009815268119a5b985b1a5e995960ba1b602082015290565b506040805180820190915260078152662ab735b737bbb760c91b602082015290565b60006060806000806000806000600454975060058054610d2f90611cfb565b80601f0160208091040260200160405190810160405280929190818152602001828054610d5b90611cfb565b8015610da85780601f10610d7d57610100808354040283529160200191610da8565b820191906000526020600020905b815481529060010190602001808311610d8b57829003601f168201915b50939a5060009350610db992505050565b600354600160a01b900460ff166004811115610dd757610dd761199f565b03610e015760405180604001604052806005815260200164053657475760dc1b8152509550610f2a565b6001600354600160a01b900460ff166004811115610e2157610e2161199f565b03610e4b5760405180604001604052806005815260200164526561647960d81b8152509550610f2a565b6002600354600160a01b900460ff166004811115610e6b57610e6b61199f565b03610e96576040518060400160405280600681526020016541637469766560d01b8152509550610f2a565b60038054600160a01b900460ff166004811115610eb557610eb561199f565b03610ee0576040518060400160405280600681526020016510db1bdcd95960d21b8152509550610f2a565b6004600354600160a01b900460ff166004811115610f0057610f0061199f565b03610f2a5760405180604001604052806009815260200168119a5b985b1a5e995960ba1b81525095505b600160009054906101000a90046001600160a01b03166001600160a01b0316636b4169c36040518163ffffffff1660e01b8152600401606060405180830381865afa158015610f7d573d6000803e3d6000fd5b505050506040513d601f19601f82011682018060405250810190610fa19190611d35565b600254604080516316070a0760e21b815290519499509297509095506000926001600160a01b039091169163581c281c9160048083019260809291908290030181865afa158015610ff6573d6000803e3d6000fd5b505050506040513d601f19601f8201168201806040525081019061101a9190611d78565b505050905080801561104957506002600354600160a01b900460ff1660048111156110475761104761199f565b145b600354604080516347c0693160e01b815281519396506001600160a01b03909216926347c069319260048082019392918290030181865afa158015611092573d6000803e3d6000fd5b505050506040513d601f19601f820116820180604052508101906110b69190611db5565b509150509091929394959697565b600280600354600160a01b900460ff1660048111156110e5576110e561199f565b1461110a600360149054906101000a900460ff1660048111156103a5576103a561199f565b61111f8360048111156103a5576103a561199f565b604051602001611130929190611c6e565b6040516020818303038152906040529061115d5760405162461bcd60e51b81526004016103fd9190611a4f565b506002546040516335c60cdb60e01b81526004810186905260248101859052604481018490526001600160a01b03909116906335c60cdb90606401600060405180830381600087803b1580156111b257600080fd5b505af11580156111c6573d6000803e3d6000fd5b50505050827fef4e6f4e8df4eaab94853998d6c3af8bc2efc462eeae6714be00b0b53336db12836040516111fc91815260200190565b60405180910390a250505050565b6112126117f6565b600380600354600160a01b900460ff1660048111156112335761123361199f565b14611258600360149054906101000a900460ff1660048111156103a5576103a561199f565b61126d8360048111156103a5576103a561199f565b60405160200161127e929190611c6e565b604051602081830303815290604052906112ab5760405162461bcd60e51b81526004016103fd9190611a4f565b5085841461130d5760405162461bcd60e51b815260206004820152602960248201527f456c656374696f6e436f6e74726f6c6c65723a206172726179206c656e677468604482015268040dad2e6dac2e8c6d60bb1b60648201526084016103fd565b8582146113825760405162461bcd60e51b815260206004820152603860248201527f456c656374696f6e436f6e74726f6c6c65723a20657870656374656420766f7460448201527f6573206172726179206c656e677468206d69736d61746368000000000000000060648201526084016103fd565b60005b86811015611458576003546001600160a01b0316638a3b284e8989848181106113b0576113b0611de1565b905060200201358888858181106113c9576113c9611de1565b90506020028101906113db9190611df7565b8888878181106113ed576113ed611de1565b905060200201356040518563ffffffff1660e01b81526004016114139493929190611e73565b600060405180830381600087803b15801561142d57600080fd5b505af1158015611441573d6000803e3d6000fd5b50505050808061145090611eb4565b915050611385565b50600360009054906101000a90046001600160a01b03166001600160a01b031663f7d3d4f36040518163ffffffff1660e01b8152600401600060405180830381600087803b1580156114a957600080fd5b505af11580156114bd573d6000803e3d6000fd5b50504260098190556003805460ff60a01b1916600160a21b17905560408051918252517f1181218abe1b01e358ee45db9344958f81741ea29df2fd51df97b92442b2d89e9350908190036020019150a160046040514281527fe65264342b0c60a079c9c89c73855ac517088348498810186d8c8ae6c7848ba19060200160405180910390a250505050505050565b6115536117f6565b6001600160a01b03811661157d57604051631e4fbdf760e01b8152600060048201526024016103fd565b6115868161194f565b50565b60006002600354600160a01b900460ff1660048111156115ab576115ab61199f565b146115b65750600090565b600080600080600260009054906101000a90046001600160a01b03166001600160a01b031663581c281c6040518163ffffffff1660e01b8152600401608060405180830381865afa15801561160f573d6000803e3d6000fd5b505050506040513d601f19601f820116820180604052508101906116339190611d78565b93509350935093508380156116485750828110155b80156116545750818111155b94505050505090565b6116656117f6565b600080600354600160a01b900460ff1660048111156116865761168661199f565b146116ab600360149054906101000a900460ff1660048111156103a5576103a561199f565b6116c08360048111156103a5576103a561199f565b6040516020016116d1929190611c6e565b604051602081830303815290604052906116fe5760405162461bcd60e51b81526004016103fd9190611a4f565b5060025460405163fd72ad2560e01b81526001600160a01b039091169063fd72ad2590611735908890889088908890600401611ecd565b600060405180830381600087803b15801561174f57600080fd5b505af1158015611763573d6000803e3d6000fd5b5050505060005b848110156117ee5785858281811061178457611784611de1565b905060200201357fd45e07f0b6dee4250d1421ff970b09b77d7915aca263ecf3bc78acbfc40e85228585848181106117be576117be611de1565b905060200201356040516117d491815260200190565b60405180910390a2806117e681611eb4565b91505061176a565b505050505050565b6000546001600160a01b0316331461089d5760405163118cdaa760e01b81523360048201526024016103fd565b60608160000361184a5750506040805180820190915260018152600360fc1b602082015290565b8160005b8115611874578061185e81611eb4565b915061186d9050600a83611eff565b915061184e565b60008167ffffffffffffffff81111561188f5761188f611f21565b6040519080825280601f01601f1916602001820160405280156118b9576020820181803683370190505b509050815b8515611946576118cf600182611f37565b905060006118de600a88611eff565b6118e990600a611f50565b6118f39088611f37565b6118fe906030611f67565b905060008160f81b90508084848151811061191b5761191b611de1565b60200101906001600160f81b031916908160001a90535061193d600a89611eff565b975050506118be565b50949350505050565b600080546001600160a01b038381166001600160a01b0319831681178455604051919092169283917f8be0079c531659141344cd1fd0a4f28419497f9722a3daafe3b4186f6b6457e09190a35050565b634e487b7160e01b600052602160045260246000fd5b60208101600583106119d757634e487b7160e01b600052602160045260246000fd5b91905290565b600080604083850312156119f057600080fd5b50508035926020909101359150565b60005b83811015611a1a578181015183820152602001611a02565b50506000910152565b60008151808452611a3b8160208601602086016119ff565b601f01601f19169290920160200192915050565b602081526000611a626020830184611a23565b9392505050565b60006101008a8352806020840152611a838184018b611a23565b90508281036040840152611a97818a611a23565b60608401989098525050608081019490945260a0840192909252151560c0830152151560e0909101529392505050565b600080600060608486031215611adc57600080fd5b505081359360208301359350604090920135919050565b60008083601f840112611b0557600080fd5b50813567ffffffffffffffff811115611b1d57600080fd5b6020830191508360208260051b8501011115611b3857600080fd5b9250929050565b60008060008060008060608789031215611b5857600080fd5b863567ffffffffffffffff80821115611b7057600080fd5b611b7c8a838b01611af3565b90985096506020890135915080821115611b9557600080fd5b611ba18a838b01611af3565b90965094506040890135915080821115611bba57600080fd5b50611bc789828a01611af3565b979a9699509497509295939492505050565b600060208284031215611beb57600080fd5b81356001600160a01b0381168114611a6257600080fd5b60008060008060408587031215611c1857600080fd5b843567ffffffffffffffff80821115611c3057600080fd5b611c3c88838901611af3565b90965094506020870135915080821115611c5557600080fd5b50611c6287828801611af3565b95989497509550505050565b7f456c656374696f6e436f6e74726f6c6c65723a206e6f7420696e20726571756981527303932b210383430b9b2971021bab93932b73a1d160651b602082015260008351611cc38160348501602088016119ff565b6b016102932b8bab4b932b21d160a51b6034918401918201528351611cef8160408401602088016119ff565b01604001949350505050565b600181811c90821680611d0f57607f821691505b602082108103611d2f57634e487b7160e01b600052602260045260246000fd5b50919050565b600080600060608486031215611d4a57600080fd5b8351925060208401519150604084015190509250925092565b80518015158114611d7357600080fd5b919050565b60008060008060808587031215611d8e57600080fd5b611d9785611d63565b60208601516040870151606090970151919890975090945092505050565b60008060408385031215611dc857600080fd5b611dd183611d63565b9150602083015190509250929050565b634e487b7160e01b600052603260045260246000fd5b6000808335601e19843603018112611e0e57600080fd5b83018035915067ffffffffffffffff821115611e2957600080fd5b6020019150600581901b3603821315611b3857600080fd5b81835260006001600160fb1b03831115611e5a57600080fd5b8260051b80836020870137939093016020019392505050565b848152606060208201526000611e8d606083018587611e41565b905082604083015295945050505050565b634e487b7160e01b600052601160045260246000fd5b600060018201611ec657611ec6611e9e565b5060010190565b604081526000611ee1604083018688611e41565b8281036020840152611ef4818587611e41565b979650505050505050565b600082611f1c57634e487b7160e01b600052601260045260246000fd5b500490565b634e487b7160e01b600052604160045260246000fd5b81810381811115611f4a57611f4a611e9e565b92915050565b8082028115828204841417611f4a57611f4a611e9e565b60ff8181168382160190811115611f4a57611f4a611e9e56fea2646970667358221220bcf993880116eec39be39c69dec90d54085109757ac6c7c6b7d421fd2491200a64736f6c63430008140033",
  "immutableReferences": {},
  "source": "// SPDX-License-Identifier: MIT\npragma solidity ^0.8.20;\n\nimport \"@openzeppelin/contracts/access/Ownable.sol\";\nimport \"./VoterRegistry.sol\";\nimport \"./VotingBooth.sol\";\nimport \"./ResultsTallier.sol\";\n\n/**\n * @title ElectionController\n * @dev Main controller for election lifecycle with strict phase management\n * Coordinates VoterRegistry, VotingBooth, and ResultsTallier\n */\ncontract ElectionController is Ownable {\n    enum ElectionPhase {\n        Setup,      // Initial phase: registering voters and candidates\n        Ready,      // Configuration complete, ready to start\n        Active,     // Voting is open\n        Closed,     // Voting has closed, ready for tallying\n        Finalized   // Results tallied and finalized\n    }\n\n    // Contract references\n    VoterRegistry public voterRegistry;\n    VotingBooth public votingBooth;\n    ResultsTallier public resultsTallier;\n\n    // Election state\n    ElectionPhase public currentPhase;\n    uint256 public electionId;\n    string public electionName;\n\n    // Timing\n    uint256 public setupCompletedAt;\n    uint256 public votingStartedAt;\n    uint256 public votingClosedAt;\n    uint256 public resultsFinalizedAt;\n\n    // Events\n    event PhaseChanged(ElectionPhase indexed newPhase, uint256 timestamp);\n    event VoterRegisteredViaController(bytes32 indexed voterHash, uint256 constituencyId);\n    event CandidateRegisteredViaController(uint256 indexed candidateId, uint256 constituencyId);\n    event VoteSubmittedViaController(uint256 indexed candidateId, uint256 constituencyId);\n    event ElectionStarted(uint256 startTime, uint256 endTime);\n    event ElectionClosed(uint256 closeTime);\n    event ResultsTalliedAndFinalized(uint256 timestamp);\n\n    /**\n     * @dev Constructor\n     * @param _electionId Unique election identifier\n     * @param _electionName Human-readable election name\n     * @param _voterRegistry Address of VoterRegistry contract\n     * @param _votingBooth Address of VotingBooth contract\n     * @param _resultsTallier Address of ResultsTallier contract\n     */\n    constructor(\n        uint256 _electionId,\n        string memory _electionName,\n        address _voterRegistry,\n        address _votingBooth,\n        address _resultsTallier\n    ) Ownable(msg.sender) {\n        require(_voterRegistry != address(0), \"ElectionController: invalid registry address\");\n        require(_votingBooth != address(0), \"ElectionController: invalid booth address\");\n        require(_resultsTallier != address(0), \"ElectionController: invalid tallier address\");\n\n        electionId = _electionId;\n        electionName = _electionName;\n        voterRegistry = VoterRegistry(_voterRegistry);\n        votingBooth = VotingBooth(_votingBooth);\n        resultsTallier = ResultsTallier(_resultsTallier);\n\n        currentPhase = ElectionPhase.Setup;\n    }\n\n    /**\n     * @dev Modifier to ensure current phase matches required phase\n     */\n    modifier inPhase(ElectionPhase requiredPhase) {\n        require(\n            currentPhase == requiredPhase,\n            string(abi.encodePacked(\n                \"ElectionController: not in required phase. Current: \",\n                uint2str(uint256(currentPhase)),\n                \", Required: \",\n                uint2str(uint256(requiredPhase))\n            ))\n        );\n        _;\n    }\n\n    /**\n     * @dev Register a voter (only in Setup phase)\n     * @param voterHash Keccak256 hash of voter identity\n     * @param constituencyId Constituency ID\n     */\n    function registerVoter(bytes32 voterHash, uint256 constituencyId)\n        external\n        onlyOwner\n        inPhase(ElectionPhase.Setup)\n    {\n        voterRegistry.registerVoter(voterHash, constituencyId);\n        emit VoterRegisteredViaController(voterHash, constituencyId);\n    }\n\n    /**\n     * @dev Register a candidate (only in Setup phase)\n     * @param candidateId Candidate identifier\n     * @param constituencyId Constituency ID\n     */\n    function registerCandidate(uint256 candidateId, uint256 constituencyId)\n        external\n        onlyOwner\n        inPhase(ElectionPhase.Setup)\n    {\n        votingBooth.registerCandidate(candidateId, constituencyId);\n        emit CandidateRegisteredViaController(candidateId, constituencyId);\n    }\n\n    /**\n     * @dev Batch register candidates (only in Setup phase)\n     * @param candidateIds Array of candidate IDs\n     * @param constituencyIds Array of constituency IDs\n     */\n    function batchRegisterCandidates(\n        uint256[] calldata candidateIds,\n        uint256[] calldata constituencyIds\n    ) external onlyOwner inPhase(ElectionPhase.Setup) {\n        votingBooth.batchRegisterCandidates(candidateIds, constituencyIds);\n\n        for (uint256 i = 0; i < candidateIds.length; i++) {\n            emit CandidateRegisteredViaController(candidateIds[i], constituencyIds[i]);\n        }\n    }\n\n    /**\n     * @dev Mark setup as complete and transition to Ready phase\n     */\n    function completeSetup() external onlyOwner inPhase(ElectionPhase.Setup) {\n        // Close voter registration\n        voterRegistry.closeRegistration();\n\n        setupCompletedAt = block.timestamp;\n        currentPhase = ElectionPhase.Ready;\n\n        emit PhaseChanged(ElectionPhase.Ready, block.timestamp);\n    }\n\n    /**\n     * @dev Start the election (transition from Ready to Active)\n     * @param startTime Unix timestamp when voting starts\n     * @param endTime Unix timestamp when voting ends\n     */\n    function startElection(uint256 startTime, uint256 endTime)\n        external\n        onlyOwner\n        inPhase(ElectionPhase.Ready)\n    {\n        require(endTime > startTime, \"ElectionController: invalid time range\");\n        require(startTime >= block.timestamp, \"ElectionController: start time must be in future\");\n\n        // Open voting in the booth\n        votingBooth.openVoting(startTime, endTime);\n\n        votingStartedAt = block.timestamp;\n        currentPhase = ElectionPhase.Active;\n\n        emit ElectionStarted(startTime, endTime);\n        emit PhaseChanged(ElectionPhase.Active, block.timestamp);\n    }\n\n    /**\n     * @dev Submit a vote (only in Active phase)\n     * @param voterHash Keccak256 hash of voter identity\n     * @param candidateId Candidate identifier\n     * @param constituencyId Constituency identifier\n     */\n    function submitVote(\n        bytes32 voterHash,\n        uint256 candidateId,\n        uint256 constituencyId\n    ) external inPhase(ElectionPhase.Active) {\n        votingBooth.castVote(voterHash, candidateId, constituencyId);\n        emit VoteSubmittedViaController(candidateId, constituencyId);\n    }\n\n    /**\n     * @dev Close the election (transition from Active to Closed)\n     */\n    function closeElection() external onlyOwner inPhase(ElectionPhase.Active) {\n        votingBooth.closeVoting();\n\n        votingClosedAt = block.timestamp;\n        currentPhase = ElectionPhase.Closed;\n\n        emit ElectionClosed(block.timestamp);\n        emit PhaseChanged(ElectionPhase.Closed, block.timestamp);\n    }\n\n    /**\n     * @dev Tally results and finalize (transition from Closed to Finalized)\n     * @param constituencyIds Array of all constituency IDs\n     * @param candidateIdsPerConstituency 2D array of candidate IDs for each constituency\n     * @param expectedVotesPerConstituency Array of expected vote counts for validation\n     */\n    function tallyAndFinalize(\n        uint256[] calldata constituencyIds,\n        uint256[][] calldata candidateIdsPerConstituency,\n        uint256[] calldata expectedVotesPerConstituency\n    ) external onlyOwner inPhase(ElectionPhase.Closed) {\n        require(\n            constituencyIds.length == candidateIdsPerConstituency.length,\n            \"ElectionController: array length mismatch\"\n        );\n        require(\n            constituencyIds.length == expectedVotesPerConstituency.length,\n            \"ElectionController: expected votes array length mismatch\"\n        );\n\n        // Tally each constituency\n        for (uint256 i = 0; i < constituencyIds.length; i++) {\n            resultsTallier.tallyConstituency(\n                constituencyIds[i],\n                candidateIdsPerConstituency[i],\n                expectedVotesPerConstituency[i]\n            );\n        }\n\n        // Finalize results\n        resultsTallier.finalizeResults();\n\n        resultsFinalizedAt = block.timestamp;\n        currentPhase = ElectionPhase.Finalized;\n\n        emit ResultsTalliedAndFinalized(block.timestamp);\n        emit PhaseChanged(ElectionPhase.Finalized, block.timestamp);\n    }\n\n    /**\n     * @dev Get current phase as string\n     * @return string Phase name\n     */\n    function getCurrentPhase() external view returns (string memory) {\n        if (currentPhase == ElectionPhase.Setup) return \"Setup\";\n        if (currentPhase == ElectionPhase.Ready) return \"Ready\";\n        if (currentPhase == ElectionPhase.Active) return \"Active\";\n        if (currentPhase == ElectionPhase.Closed) return \"Closed\";\n        if (currentPhase == ElectionPhase.Finalized) return \"Finalized\";\n        return \"Unknown\";\n    }\n\n    /**\n     * @dev Check if voting is currently open\n     * @return bool True if in Active phase and within voting window\n     */\n    function isVotingOpen() external view returns (bool) {\n        if (currentPhase != ElectionPhase.Active) {\n            return false;\n        }\n\n        (bool isOpen, uint256 startTime, uint256 endTime, uint256 currentTime) =\n            votingBooth.getVotingStatus();\n\n        return isOpen && currentTime >= startTime && currentTime <= endTime;\n    }\n\n    /**\n     * @dev Get comprehensive election summary\n     * @return _electionId The election ID\n     * @return _electionName The election name\n     * @return phase Current election phase as string\n     * @return totalRegistered Total number of registered voters\n     * @return totalVoted Total number of votes cast\n     * @return turnoutBasisPoints Voter turnout in basis points\n     * @return votingIsOpen Whether voting is currently open\n     * @return resultsAreFinalized Whether results have been finalized\n     */\n    function getElectionSummary()\n        external\n        view\n        returns (\n            uint256 _electionId,\n            string memory _electionName,\n            string memory phase,\n            uint256 totalRegistered,\n            uint256 totalVoted,\n            uint256 turnoutBasisPoints,\n            bool votingIsOpen,\n            bool resultsAreFinalized\n        )\n    {\n        _electionId = electionId;\n        _electionName = electionName;\n\n        if (currentPhase == ElectionPhase.Setup) phase = \"Setup\";\n        else if (currentPhase == ElectionPhase.Ready) phase = \"Ready\";\n        else if (currentPhase == ElectionPhase.Active) phase = \"Active\";\n        else if (currentPhase == ElectionPhase.Closed) phase = \"Closed\";\n        else if (currentPhase == ElectionPhase.Finalized) phase = \"Finalized\";\n\n        (totalRegistered, totalVoted, turnoutBasisPoints) = voterRegistry.getGlobalStats();\n\n        (bool isOpen, , , ) = votingBooth.getVotingStatus();\n        votingIsOpen = isOpen && (currentPhase == ElectionPhase.Active);\n\n        (resultsAreFinalized, ) = resultsTallier.getFinalizationStatus();\n\n        return (\n            _electionId,\n            _electionName,\n            phase,\n            totalRegistered,\n            totalVoted,\n            turnoutBasisPoints,\n            votingIsOpen,\n            resultsAreFinalized\n        );\n    }\n\n    /**\n     * @dev Get phase transition timestamps\n     * @return _setupCompletedAt Timestamp when setup phase was completed\n     * @return _votingStartedAt Timestamp when voting started\n     * @return _votingClosedAt Timestamp when voting was closed\n     * @return _resultsFinalizedAt Timestamp when results were finalized\n     */\n    function getPhaseTimestamps()\n        external\n        view\n        returns (\n            uint256 _setupCompletedAt,\n            uint256 _votingStartedAt,\n            uint256 _votingClosedAt,\n            uint256 _resultsFinalizedAt\n        )\n    {\n        return (\n            setupCompletedAt,\n            votingStartedAt,\n            votingClosedAt,\n            resultsFinalizedAt\n        );\n    }\n\n    /**\n     * @dev Helper function to convert uint to string\n     */\n    function uint2str(uint256 _i) internal pure returns (string memory) {\n        if (_i == 0) {\n            return \"0\";\n        }\n        uint256 j = _i;\n        uint256 length;\n        while (j != 0) {\n            length++;\n            j /= 10;\n        }\n        bytes memory bstr = new bytes(length);\n        uint256 k = length;\n        while (_i != 0) {\n            k = k - 1;\n            uint8 temp = (48 + uint8(_i - _i / 10 * 10));\n            bytes1 b1 = bytes1(temp);\n            bstr[k] = b1;\n            _i /= 10;\n        }\n        return string(bstr);\n    }\n}\n",
  "sourcePath": "/Users/work/Maj/contracts/contracts/ElectionController.sol",
  "compiler": {
    "name": "solc",
    "version": "0.8.20+commit.a1b79de6.Emscripten.clang"
  },
  "schemaVersion": "3.4.16",
  "updatedAt": "2026-02-12T11:25:23.031Z",
  "networkType": "ethereum",
  "devdoc": {
    "details": "Main controller for election lifecycle with strict phase management Coordinates VoterRegistry, VotingBooth, and ResultsTallier",
    "errors": {
      "OwnableInvalidOwner(address)": [
        {
          "details": "The owner is not a valid owner account. (eg. `address(0)`)"
        }
      ],
      "OwnableUnauthorizedAccount(address)": [
        {
          "details": "The caller account is not authorized to perform an operation."
        }
      ]
    },
    "kind": "dev",
    "methods": {
      "batchRegisterCandidates(uint256[],uint256[])": {
        "details": "Batch register candidates (only in Setup phase)",
        "params": {
          "candidateIds": "Array of candidate IDs",
          "constituencyIds": "Array of constituency IDs"
        }
      },
      "closeElection()": {
        "details": "Close the election (transition from Active to Closed)"
      },
      "completeSetup()": {
        "details": "Mark setup as complete and transition to Ready phase"
      },
      "constructor": {
        "details": "Constructor",
        "params": {
          "_electionId": "Unique election identifier",
          "_electionName": "Human-readable election name",
          "_resultsTallier": "Address of ResultsTallier contract",
          "_voterRegistry": "Address of VoterRegistry contract",
          "_votingBooth": "Address of VotingBooth contract"
        }
      },
      "getCurrentPhase()": {
        "details": "Get current phase as string",
        "returns": {
          "_0": "string Phase name"
        }
      },
      "getElectionSummary()": {
        "details": "Get comprehensive election summary",
        "returns": {
          "_electionId": "The election ID",
          "_electionName": "The election name",
          "phase": "Current election phase as string",
          "resultsAreFinalized": "Whether results have been finalized",
          "totalRegistered": "Total number of registered voters",
          "totalVoted": "Total number of votes cast",
          "turnoutBasisPoints": "Voter turnout in basis points",
          "votingIsOpen": "Whether voting is currently open"
        }
      },
      "getPhaseTimestamps()": {
        "details": "Get phase transition timestamps",
        "returns": {
          "_resultsFinalizedAt": "Timestamp when results were finalized",
          "_setupCompletedAt": "Timestamp when setup phase was completed",
          "_votingClosedAt": "Timestamp when voting was closed",
          "_votingStartedAt": "Timestamp when voting started"
        }
      },
      "isVotingOpen()": {
        "details": "Check if voting is currently open",
        "returns": {
          "_0": "bool True if in Active phase and within voting window"
        }
      },
      "owner()": {
        "details": "Returns the address of the current owner."
      },
      "registerCandidate(uint256,uint256)": {
        "details": "Register a candidate (only in Setup phase)",
        "params": {
          "candidateId": "Candidate identifier",
          "constituencyId": "Constituency ID"
        }
      },
      "registerVoter(bytes32,uint256)": {
        "details": "Register a voter (only in Setup phase)",
        "params": {
          "constituencyId": "Constituency ID",
          "voterHash": "Keccak256 hash of voter identity"
        }
      },
      "renounceOwnership()": {
        "details": "Leaves the contract without owner. It will not be possible to call `onlyOwner` functions. Can only be called by the current owner. NOTE: Renouncing ownership will leave the contract without an owner, thereby disabling any functionality that is only available to the owner."
      },
      "startElection(uint256,uint256)": {
        "details": "Start the election (transition from Ready to Active)",
        "params": {
          "endTime": "Unix timestamp when voting ends",
          "startTime": "Unix timestamp when voting starts"
        }
      },
      "submitVote(bytes32,uint256,uint256)": {
        "details": "Submit a vote (only in Active phase)",
        "params": {
          "candidateId": "Candidate identifier",
          "constituencyId": "Constituency identifier",
          "voterHash": "Keccak256 hash of voter identity"
        }
      },
      "tallyAndFinalize(uint256[],uint256[][],uint256[])": {
        "details": "Tally results and finalize (transition from Closed to Finalized)",
        "params": {
          "candidateIdsPerConstituency": "2D array of candidate IDs for each constituency",
          "constituencyIds": "Array of all constituency IDs",
          "expectedVotesPerConstituency": "Array of expected vote counts for validation"
        }
      },
      "transferOwnership(address)": {
        "details": "Transfers ownership of the contract to a new account (`newOwner`). Can only be called by the current owner."
      }
    },
    "title": "ElectionController",
    "version": 1
  },
  "userdoc": {
    "kind": "user",
    "methods": {},
    "version": 1
  }
}