{
  "contractName": "ResultsTallier",
  "abi": [
    {
      "inputs": [
        {
          "internalType": "address",
          "name": "_votingBooth",
          "type": "address"
        }
      ],
      "stateMutability": "nonpayable",
      "type": "constructor"
    },
    {
      "inputs": [
        {
          "internalType": "address",
          "name": "owner",
          "type": "address"
        }
      ],
      "name": "OwnableInvalidOwner",
      "type": "error"
    },
    {
      "inputs": [
        {
          "internalType": "address",
          "name": "account",
          "type": "address"
        }
      ],
      "name": "OwnableUnauthorizedAccount",
      "type": "error"
    },
    {
      "anonymous": false,
      "inputs": [
        {
          "indexed": true,
          "internalType": "uint256",
          "name": "constituencyId",
          "type": "uint256"
        },
        {
          "indexed": false,
          "internalType": "uint256",
          "name": "winnerCandidateId",
          "type": "uint256"
        },
        {
          "indexed": false,
          "internalType": "uint256",
          "name": "voteCount",
          "type": "uint256"
        },
        {
          "indexed": false,
          "internalType": "bool",
          "name": "isTied",
          "type": "bool"
        }
      ],
      "name": "ConstituencyTallied",
      "type": "event"
    },
    {
      "anonymous": false,
      "inputs": [
        {
          "indexed": true,
          "internalType": "address",
          "name": "previousOwner",
          "type": "address"
        },
        {
          "indexed": true,
          "internalType": "address",
          "name": "newOwner",
          "type": "address"
        }
      ],
      "name": "OwnershipTransferred",
      "type": "event"
    },
    {
      "anonymous": false,
      "inputs": [
        {
          "indexed": false,
          "internalType": "uint256",
          "name": "timestamp",
          "type": "uint256"
        }
      ],
      "name": "ResultsFinalized",
      "type": "event"
    },
    {
      "anonymous": false,
      "inputs": [
        {
          "indexed": true,
          "internalType": "uint256",
          "name": "constituencyId",
          "type": "uint256"
        },
        {
          "indexed": false,
          "internalType": "uint256",
          "name": "tiedVoteCount",
          "type": "uint256"
        }
      ],
      "name": "TieDetected",
      "type": "event"
    },
    {
      "anonymous": false,
      "inputs": [
        {
          "indexed": true,
          "internalType": "uint256",
          "name": "constituencyId",
          "type": "uint256"
        },
        {
          "indexed": true,
          "internalType": "uint256",
          "name": "candidateId",
          "type": "uint256"
        },
        {
          "indexed": false,
          "internalType": "uint256",
          "name": "voteCount",
          "type": "uint256"
        }
      ],
      "name": "WinnerDeclared",
      "type": "event"
    },
    {
      "inputs": [
        {
          "internalType": "uint256",
          "name": "",
          "type": "uint256"
        }
      ],
      "name": "constituencyTallied",
      "outputs": [
        {
          "internalType": "bool",
          "name": "",
          "type": "bool"
        }
      ],
      "stateMutability": "view",
      "type": "function",
      "constant": true
    },
    {
      "inputs": [],
      "name": "finalizedAt",
      "outputs": [
        {
          "internalType": "uint256",
          "name": "",
          "type": "uint256"
        }
      ],
      "stateMutability": "view",
      "type": "function",
      "constant": true
    },
    {
      "inputs": [],
      "name": "owner",
      "outputs": [
        {
          "internalType": "address",
          "name": "",
          "type": "address"
        }
      ],
      "stateMutability": "view",
      "type": "function",
      "constant": true
    },
    {
      "inputs": [],
      "name": "renounceOwnership",
      "outputs": [],
      "stateMutability": "nonpayable",
      "type": "function"
    },
    {
      "inputs": [],
      "name": "resultsFinalized",
      "outputs": [
        {
          "internalType": "bool",
          "name": "",
          "type": "bool"
        }
      ],
      "stateMutability": "view",
      "type": "function",
      "constant": true
    },
    {
      "inputs": [
        {
          "internalType": "address",
          "name": "newOwner",
          "type": "address"
        }
      ],
      "name": "transferOwnership",
      "outputs": [],
      "stateMutability": "nonpayable",
      "type": "function"
    },
    {
      "inputs": [],
      "name": "votingBooth",
      "outputs": [
        {
          "internalType": "contract VotingBooth",
          "name": "",
          "type": "address"
        }
      ],
      "stateMutability": "view",
      "type": "function",
      "constant": true
    },
    {
      "inputs": [
        {
          "internalType": "uint256",
          "name": "constituencyId",
          "type": "uint256"
        },
        {
          "internalType": "uint256[]",
          "name": "candidateIds",
          "type": "uint256[]"
        },
        {
          "internalType": "uint256",
          "name": "expectedTotalVotes",
          "type": "uint256"
        }
      ],
      "name": "tallyConstituency",
      "outputs": [],
      "stateMutability": "nonpayable",
      "type": "function"
    },
    {
      "inputs": [],
      "name": "finalizeResults",
      "outputs": [],
      "stateMutability": "nonpayable",
      "type": "function"
    },
    {
      "inputs": [
        {
          "internalType": "uint256",
          "name": "constituencyId",
          "type": "uint256"
        }
      ],
      "name": "getConstituencyResult",
      "outputs": [
        {
          "components": [
            {
              "internalType": "uint256",
              "name": "constituencyId",
              "type": "uint256"
            },
            {
              "internalType": "uint256",
              "name": "winnerCandidateId",
              "type": "uint256"
            },
            {
              "internalType": "uint256",
              "name": "winnerVoteCount",
              "type": "uint256"
            },
            {
              "internalType": "bool",
              "name": "isTied",
              "type": "bool"
            },
            {
              "internalType": "uint256",
              "name": "totalVotes",
              "type": "uint256"
            },
            {
              "internalType": "bool",
              "name": "isFinalized",
              "type": "bool"
            },
            {
              "internalType": "uint256",
              "name": "finalizedAt",
              "type": "uint256"
            }
          ],
          "internalType": "struct ResultsTallier.ConstituencyResult",
          "name": "result",
          "type": "tuple"
        }
      ],
      "stateMutability": "view",
      "type": "function",
      "constant": true
    },
    {
      "inputs": [
        {
          "internalType": "uint256",
          "name": "candidateId",
          "type": "uint256"
        }
      ],
      "name": "getCandidateResult",
      "outputs": [
        {
          "components": [
            {
              "internalType": "uint256",
              "name": "candidateId",
              "type": "uint256"
            },
            {
              "internalType": "uint256",
              "name": "voteCount",
              "type": "uint256"
            },
            {
              "internalType": "uint256",
              "name": "constituencyId",
              "type": "uint256"
            }
          ],
          "internalType": "struct ResultsTallier.CandidateResult",
          "name": "result",
          "type": "tuple"
        }
      ],
      "stateMutability": "view",
      "type": "function",
      "constant": true
    },
    {
      "inputs": [
        {
          "internalType": "uint256",
          "name": "constituencyId",
          "type": "uint256"
        }
      ],
      "name": "isConstituencyTallied",
      "outputs": [
        {
          "internalType": "bool",
          "name": "",
          "type": "bool"
        }
      ],
      "stateMutability": "view",
      "type": "function",
      "constant": true
    },
    {
      "inputs": [
        {
          "internalType": "uint256[]",
          "name": "constituencyIds",
          "type": "uint256[]"
        }
      ],
      "name": "getBatchConstituencyResults",
      "outputs": [
        {
          "components": [
            {
              "internalType": "uint256",
              "name": "constituencyId",
              "type": "uint256"
            },
            {
              "internalType": "uint256",
              "name": "winnerCandidateId",
              "type": "uint256"
            },
            {
              "internalType": "uint256",
              "name": "winnerVoteCount",
              "type": "uint256"
            },
            {
              "internalType": "bool",
              "name": "isTied",
              "type": "bool"
            },
            {
              "internalType": "uint256",
              "name": "totalVotes",
              "type": "uint256"
            },
            {
              "internalType": "bool",
              "name": "isFinalized",
              "type": "bool"
            },
            {
              "internalType": "uint256",
              "name": "finalizedAt",
              "type": "uint256"
            }
          ],
          "internalType": "struct ResultsTallier.ConstituencyResult[]",
          "name": "results",
          "type": "tuple[]"
        }
      ],
      "stateMutability": "view",
      "type": "function",
      "constant": true
    },
    {
      "inputs": [
        {
          "internalType": "uint256[]",
          "name": "candidateIds",
          "type": "uint256[]"
        }
      ],
      "name": "getBatchCandidateResults",
      "outputs": [
        {
          "components": [
            {
              "internalType": "uint256",
              "name": "candidateId",
              "type": "uint256"
            },
            {
              "internalType": "uint256",
              "name": "voteCount",
              "type": "uint256"
            },
            {
              "internalType": "uint256",
              "name": "constituencyId",
              "type": "uint256"
            }
          ],
          "internalType": "struct ResultsTallier.CandidateResult[]",
          "name": "results",
          "type": "tuple[]"
        }
      ],
      "stateMutability": "view",
      "type": "function",
      "constant": true
    },
    {
      "inputs": [],
      "name": "getFinalizationStatus",
      "outputs": [
        {
          "internalType": "bool",
          "name": "isFinalized",
          "type": "bool"
        },
        {
          "internalType": "uint256",
          "name": "timestamp",
          "type": "uint256"
        }
      ],
      "stateMutability": "view",
      "type": "function",
      "constant": true
    }
  ],
  "bytecode": "0x608060405234801561001057600080fd5b50604051620015e2380380620015e28339810160408190526100319161014c565b338061005857604051631e4fbdf760e01b8152600060048201526024015b60405180910390fd5b610061816100fc565b506001600160a01b0381166100cd5760405162461bcd60e51b815260206004820152602c60248201527f526573756c747354616c6c6965723a20696e76616c696420766f74696e67206260448201526b6f6f7468206164647265737360a01b606482015260840161004f565b600180546001600160a01b0319166001600160a01b03929092169190911790556005805460ff1916905561017c565b600080546001600160a01b038381166001600160a01b0319831681178455604051919092169283917f8be0079c531659141344cd1fd0a4f28419497f9722a3daafe3b4186f6b6457e09190a35050565b60006020828403121561015e57600080fd5b81516001600160a01b038116811461017557600080fd5b9392505050565b611456806200018c6000396000f3fe608060405234801561001057600080fd5b50600436106100f55760003560e01c80638da5cb5b11610097578063bcc449de11610066578063bcc449de1461023a578063e93654d11461025a578063f2fde38b1461027a578063f7d3d4f31461028d57600080fd5b80638da5cb5b146101c65780639bd2325f146101d75780639c71bd71146101fa578063b6026eeb1461021a57600080fd5b806347c06931116100d357806347c0693114610156578063715018a61461017e57806374187381146101885780638a3b284e146101b357600080fd5b8063170773a5146100fa5780631af766101461011c578063365d57a41461013f575b600080fd5b6005546101079060ff1681565b60405190151581526020015b60405180910390f35b61010761012a366004610ff3565b60046020526000908152604090205460ff1681565b61014860065481565b604051908152602001610113565b61016760055460065460ff90911691565b604080519215158352602083019190915201610113565b610186610295565b005b60015461019b906001600160a01b031681565b6040516001600160a01b039091168152602001610113565b6101866101c1366004611058565b6102a9565b6000546001600160a01b031661019b565b6101076101e5366004610ff3565b60009081526004602052604090205460ff1690565b61020d610208366004610ff3565b6108ea565b60405161011391906110f3565b61022d610228366004611101565b6109e8565b6040516101139190611143565b61024d610248366004611101565b610bb9565b6040516101139190611191565b61026d610268366004610ff3565b610d2c565b60405161011391906111e7565b610186610288366004611208565b610dd6565b610186610e14565b61029d610f76565b6102a76000610fa3565b565b6102b1610f76565b60055460ff16156102dd5760405162461bcd60e51b81526004016102d490611238565b60405180910390fd5b60008481526004602052604090205460ff16156103515760405162461bcd60e51b815260206004820152602c60248201527f526573756c747354616c6c6965723a20636f6e7374697475656e637920616c7260448201526b1958591e481d185b1b1a595960a21b60648201526084016102d4565b816103ad5760405162461bcd60e51b815260206004820152602660248201527f526573756c747354616c6c6965723a206e6f2063616e646964617465732070726044820152651bdd9a59195960d21b60648201526084016102d4565b600154604080516316070a0760e21b815290516000926001600160a01b03169163581c281c9160048083019260809291908290030181865afa1580156103f7573d6000803e3d6000fd5b505050506040513d601f19601f8201168201806040525081019061041b9190611281565b5050509050801561048c5760405162461bcd60e51b815260206004820152603560248201527f526573756c747354616c6c6965723a20766f74696e67206d75737420626520636044820152746c6f736564206265666f72652074616c6c79696e6760581b60648201526084016102d4565b60008060008060005b878110156105d15760008989838181106104b1576104b16112c5565b6001546040516316585e5d60e31b815260209290920293909301356004820181905293506000926001600160a01b0316915063b2c2f2e890602401602060405180830381865afa158015610509573d6000803e3d6000fd5b505050506040513d601f19601f8201168201806040525081019061052d91906112db565b905060405180606001604052808381526020018281526020018d81525060036000848152602001908152602001600020600082015181600001556020820151816001015560408201518160020155905050808561058a919061130a565b9450868111156105a357809650819550600093506105bc565b86811480156105b25750600087115b156105bc57600193505b505080806105c99061131d565b915050610495565b508515610633578582146106335760405162461bcd60e51b815260206004820152602360248201527f526573756c747354616c6c6965723a20766f746520636f756e74206d69736d616044820152620e8c6d60eb1b60648201526084016102d4565b8015610755576000805b888110156107015760008a8a83818110610659576106596112c5565b6001546040516316585e5d60e31b815260209290920293909301356004820181905293506000926001600160a01b0316915063b2c2f2e890602401602060405180830381865afa1580156106b1573d6000803e3d6000fd5b505050506040513d601f19601f820116820180604052508101906106d591906112db565b90508781036106ec57836106e88161131d565b9450505b505080806106f99061131d565b91505061063d565b50600181111561074e5760009350897f1564e2515484fabd2b2a371ba93f068e4ee744294ff45af1eebd5f59298039f38660405161074191815260200190565b60405180910390a2610753565b600091505b505b6040518060e001604052808a8152602001848152602001858152602001821515815260200183815260200160011515815260200142815250600260008b815260200190815260200160002060008201518160000155602082015181600101556040820151816002015560608201518160030160006101000a81548160ff0219169083151502179055506080820151816004015560a08201518160050160006101000a81548160ff02191690831515021790555060c082015181600601559050506001600460008b815260200190815260200160002060006101000a81548160ff021916908315150217905550887f3eba204841f2ace6da0ff7b610bf20603a4380f11575b73fb909d3529bca04cb8486846040516108889392919092835260208301919091521515604082015260600190565b60405180910390a28015801561089e5750600083115b156108df5782897f5f232421a69b09b9a293f4879042ee2db94a28bbfd7429b78bb575bce6bae972866040516108d691815260200190565b60405180910390a35b505050505050505050565b61092e6040518060e0016040528060008152602001600081526020016000815260200160001515815260200160008152602001600015158152602001600081525090565b60055460ff166109505760405162461bcd60e51b81526004016102d490611336565b60008281526004602052604090205460ff1661097e5760405162461bcd60e51b81526004016102d49061137f565b50600090815260026020818152604092839020835160e081018552815481526001820154928101929092529182015492810192909252600381015460ff9081161515606084015260048201546080840152600582015416151560a08301526006015460c082015290565b60055460609060ff16610a0d5760405162461bcd60e51b81526004016102d490611336565b8167ffffffffffffffff811115610a2657610a266113c7565b604051908082528060200260200182016040528015610a9b57816020015b610a886040518060e0016040528060008152602001600081526020016000815260200160001515815260200160008152602001600015158152602001600081525090565b815260200190600190039081610a445790505b50905060005b82811015610bb15760046000858584818110610abf57610abf6112c5565b602090810292909201358352508101919091526040016000205460ff16610af85760405162461bcd60e51b81526004016102d49061137f565b60026000858584818110610b0e57610b0e6112c5565b60209081029290920135835250818101929092526040908101600020815160e08101835281548152600182015493810193909352600281015491830191909152600381015460ff9081161515606084015260048201546080840152600582015416151560a08301526006015460c08201528251839083908110610b9357610b936112c5565b60200260200101819052508080610ba99061131d565b915050610aa1565b505b92915050565b60055460609060ff16610bde5760405162461bcd60e51b81526004016102d490611336565b8167ffffffffffffffff811115610bf757610bf76113c7565b604051908082528060200260200182016040528015610c4c57816020015b610c3960405180606001604052806000815260200160008152602001600081525090565b815260200190600190039081610c155790505b50905060005b82811015610bb157600060036000868685818110610c7257610c726112c5565b9050602002013581526020019081526020016000206000015411610ca85760405162461bcd60e51b81526004016102d4906113dd565b60036000858584818110610cbe57610cbe6112c5565b9050602002013581526020019081526020016000206040518060600160405290816000820154815260200160018201548152602001600282015481525050828281518110610d0e57610d0e6112c5565b60200260200101819052508080610d249061131d565b915050610c52565b610d5060405180606001604052806000815260200160008152602001600081525090565b60055460ff16610d725760405162461bcd60e51b81526004016102d490611336565b600082815260036020526040902054610d9d5760405162461bcd60e51b81526004016102d4906113dd565b50600090815260036020908152604091829020825160608101845281548152600182015492810192909252600201549181019190915290565b610dde610f76565b6001600160a01b038116610e0857604051631e4fbdf760e01b8152600060048201526024016102d4565b610e1181610fa3565b50565b610e1c610f76565b60055460ff1615610e3f5760405162461bcd60e51b81526004016102d490611238565b600154604080516316070a0760e21b815290516000926001600160a01b03169163581c281c9160048083019260809291908290030181865afa158015610e89573d6000803e3d6000fd5b505050506040513d601f19601f82011682018060405250810190610ead9190611281565b50505090508015610f265760405162461bcd60e51b815260206004820152603960248201527f526573756c747354616c6c6965723a20766f74696e67206d757374206265206360448201527f6c6f736564206265666f72652066696e616c697a6174696f6e0000000000000060648201526084016102d4565b6005805460ff191660011790554260068190556040517f63766cd591e04cb4e6efcfaaea14aad1fb0f36f02ce7c571b65b405c9dfebbcc91610f6b9190815260200190565b60405180910390a150565b6000546001600160a01b031633146102a75760405163118cdaa760e01b81523360048201526024016102d4565b600080546001600160a01b038381166001600160a01b0319831681178455604051919092169283917f8be0079c531659141344cd1fd0a4f28419497f9722a3daafe3b4186f6b6457e09190a35050565b60006020828403121561100557600080fd5b5035919050565b60008083601f84011261101e57600080fd5b50813567ffffffffffffffff81111561103657600080fd5b6020830191508360208260051b850101111561105157600080fd5b9250929050565b6000806000806060858703121561106e57600080fd5b84359350602085013567ffffffffffffffff81111561108c57600080fd5b6110988782880161100c565b9598909750949560400135949350505050565b8051825260208101516020830152604081015160408301526060810151151560608301526080810151608083015260a0810151151560a083015260c081015160c08301525050565b60e08101610bb382846110ab565b6000806020838503121561111457600080fd5b823567ffffffffffffffff81111561112b57600080fd5b6111378582860161100c565b90969095509350505050565b6020808252825182820181905260009190848201906040850190845b81811015611185576111728385516110ab565b9284019260e0929092019160010161115f565b50909695505050505050565b6020808252825182820181905260009190848201906040850190845b81811015611185576111d48385518051825260208082015190830152604090810151910152565b92840192606092909201916001016111ad565b81518152602080830151908201526040808301519082015260608101610bb3565b60006020828403121561121a57600080fd5b81356001600160a01b038116811461123157600080fd5b9392505050565b60208082526029908201527f526573756c747354616c6c6965723a20726573756c747320616c726561647920604082015268199a5b985b1a5e995960ba1b606082015260800190565b6000806000806080858703121561129757600080fd5b845180151581146112a757600080fd5b60208601516040870151606090970151919890975090945092505050565b634e487b7160e01b600052603260045260246000fd5b6000602082840312156112ed57600080fd5b5051919050565b634e487b7160e01b600052601160045260246000fd5b80820180821115610bb357610bb36112f4565b60006001820161132f5761132f6112f4565b5060010190565b60208082526029908201527f526573756c747354616c6c6965723a20726573756c7473206e6f742079657420604082015268199a5b985b1a5e995960ba1b606082015260800190565b60208082526028908201527f526573756c747354616c6c6965723a20636f6e7374697475656e6379206e6f74604082015267081d185b1b1a595960c21b606082015260800190565b634e487b7160e01b600052604160045260246000fd5b60208082526023908201527f526573756c747354616c6c6965723a2063616e646964617465206e6f7420666f6040820152621d5b9960ea1b60608201526080019056fea26469706673582212203d8849f0c1b9765745f7b32152107feb0740f5dca74e19916dd58479b762b83864736f6c63430008140033",
  "immutableReferences": {},
  "source": "// SPDX-License-Identifier: MIT\npragma solidity ^0.8.20;\n\nimport \"@openzeppelin/contracts/access/Ownable.sol\";\nimport \"./VotingBooth.sol\";\n\n/**\n * @title ResultsTallier\n * @dev Tallies election results and handles tie detection\n * Results are only available after finalization\n */\ncontract ResultsTallier is Ownable {\n    struct ConstituencyResult {\n        uint256 constituencyId;\n        uint256 winnerCandidateId;\n        uint256 winnerVoteCount;\n        bool isTied;\n        uint256 totalVotes;\n        bool isFinalized;\n        uint256 finalizedAt;\n    }\n\n    struct CandidateResult {\n        uint256 candidateId;\n        uint256 voteCount;\n        uint256 constituencyId;\n    }\n\n    // Reference to voting booth\n    VotingBooth public votingBooth;\n\n    // Results storage\n    mapping(uint256 => ConstituencyResult) private constituencyResults;\n    mapping(uint256 => CandidateResult) private candidateResults;\n\n    // Track which constituencies have been tallied\n    mapping(uint256 => bool) public constituencyTallied;\n\n    // Global finalization status\n    bool public resultsFinalized;\n    uint256 public finalizedAt;\n\n    // Events\n    event ConstituencyTallied(\n        uint256 indexed constituencyId,\n        uint256 winnerCandidateId,\n        uint256 voteCount,\n        bool isTied\n    );\n    event TieDetected(uint256 indexed constituencyId, uint256 tiedVoteCount);\n    event ResultsFinalized(uint256 timestamp);\n    event WinnerDeclared(\n        uint256 indexed constituencyId,\n        uint256 indexed candidateId,\n        uint256 voteCount\n    );\n\n    /**\n     * @dev Constructor\n     * @param _votingBooth Address of the VotingBooth contract\n     */\n    constructor(address _votingBooth) Ownable(msg.sender) {\n        require(_votingBooth != address(0), \"ResultsTallier: invalid voting booth address\");\n        votingBooth = VotingBooth(_votingBooth);\n        resultsFinalized = false;\n    }\n\n    /**\n     * @dev Modifier to ensure results are finalized before viewing\n     */\n    modifier onlyWhenFinalized() {\n        require(resultsFinalized, \"ResultsTallier: results not yet finalized\");\n        _;\n    }\n\n    /**\n     * @dev Tally results for a constituency\n     * @param constituencyId Constituency identifier\n     * @param candidateIds Array of all candidate IDs in this constituency\n     * @param expectedTotalVotes Expected total votes (for validation)\n     */\n    function tallyConstituency(\n        uint256 constituencyId,\n        uint256[] calldata candidateIds,\n        uint256 expectedTotalVotes\n    ) external onlyOwner {\n        require(!resultsFinalized, \"ResultsTallier: results already finalized\");\n        require(!constituencyTallied[constituencyId], \"ResultsTallier: constituency already tallied\");\n        require(candidateIds.length > 0, \"ResultsTallier: no candidates provided\");\n\n        // Ensure voting is closed\n        (bool isOpen, , , ) = votingBooth.getVotingStatus();\n        require(!isOpen, \"ResultsTallier: voting must be closed before tallying\");\n\n        uint256 maxVotes = 0;\n        uint256 winningCandidateId = 0;\n        uint256 totalVotes = 0;\n        bool hasTie = false;\n\n        // First pass: find max votes and total\n        for (uint256 i = 0; i < candidateIds.length; i++) {\n            uint256 candidateId = candidateIds[i];\n            uint256 voteCount = votingBooth.getVoteCount(candidateId);\n\n            // Store candidate result\n            candidateResults[candidateId] = CandidateResult({\n                candidateId: candidateId,\n                voteCount: voteCount,\n                constituencyId: constituencyId\n            });\n\n            totalVotes += voteCount;\n\n            if (voteCount > maxVotes) {\n                maxVotes = voteCount;\n                winningCandidateId = candidateId;\n                hasTie = false;\n            } else if (voteCount == maxVotes && maxVotes > 0) {\n                hasTie = true;\n            }\n        }\n\n        // Validate total votes if expected count provided\n        if (expectedTotalVotes > 0) {\n            require(\n                totalVotes == expectedTotalVotes,\n                \"ResultsTallier: vote count mismatch\"\n            );\n        }\n\n        // Second pass: confirm tie (check if multiple candidates have max votes)\n        if (hasTie) {\n            uint256 tieCount = 0;\n            for (uint256 i = 0; i < candidateIds.length; i++) {\n                uint256 candidateId = candidateIds[i];\n                uint256 voteCount = votingBooth.getVoteCount(candidateId);\n                if (voteCount == maxVotes) {\n                    tieCount++;\n                }\n            }\n\n            if (tieCount > 1) {\n                // Confirmed tie\n                winningCandidateId = 0; // No winner in case of tie\n                emit TieDetected(constituencyId, maxVotes);\n            } else {\n                hasTie = false;\n            }\n        }\n\n        // Store constituency result\n        constituencyResults[constituencyId] = ConstituencyResult({\n            constituencyId: constituencyId,\n            winnerCandidateId: winningCandidateId,\n            winnerVoteCount: maxVotes,\n            isTied: hasTie,\n            totalVotes: totalVotes,\n            isFinalized: true,\n            finalizedAt: block.timestamp\n        });\n\n        constituencyTallied[constituencyId] = true;\n\n        emit ConstituencyTallied(constituencyId, winningCandidateId, maxVotes, hasTie);\n\n        if (!hasTie && winningCandidateId > 0) {\n            emit WinnerDeclared(constituencyId, winningCandidateId, maxVotes);\n        }\n    }\n\n    /**\n     * @dev Finalize all results (makes them publicly viewable)\n     */\n    function finalizeResults() external onlyOwner {\n        require(!resultsFinalized, \"ResultsTallier: results already finalized\");\n\n        // Ensure voting is closed\n        (bool isOpen, , , ) = votingBooth.getVotingStatus();\n        require(!isOpen, \"ResultsTallier: voting must be closed before finalization\");\n\n        resultsFinalized = true;\n        finalizedAt = block.timestamp;\n\n        emit ResultsFinalized(block.timestamp);\n    }\n\n    /**\n     * @dev Get constituency result (only after finalization)\n     * @param constituencyId Constituency identifier\n     * @return result ConstituencyResult struct\n     */\n    function getConstituencyResult(uint256 constituencyId)\n        external\n        view\n        onlyWhenFinalized\n        returns (ConstituencyResult memory result)\n    {\n        require(\n            constituencyTallied[constituencyId],\n            \"ResultsTallier: constituency not tallied\"\n        );\n        return constituencyResults[constituencyId];\n    }\n\n    /**\n     * @dev Get candidate result (only after finalization)\n     * @param candidateId Candidate identifier\n     * @return result CandidateResult struct\n     */\n    function getCandidateResult(uint256 candidateId)\n        external\n        view\n        onlyWhenFinalized\n        returns (CandidateResult memory result)\n    {\n        require(\n            candidateResults[candidateId].candidateId > 0,\n            \"ResultsTallier: candidate not found\"\n        );\n        return candidateResults[candidateId];\n    }\n\n    /**\n     * @dev Check if a specific constituency has been tallied\n     * @param constituencyId Constituency identifier\n     * @return bool True if tallied\n     */\n    function isConstituencyTallied(uint256 constituencyId) external view returns (bool) {\n        return constituencyTallied[constituencyId];\n    }\n\n    /**\n     * @dev Get multiple constituency results at once (only after finalization)\n     * @param constituencyIds Array of constituency identifiers\n     * @return results Array of ConstituencyResult structs\n     */\n    function getBatchConstituencyResults(uint256[] calldata constituencyIds)\n        external\n        view\n        onlyWhenFinalized\n        returns (ConstituencyResult[] memory results)\n    {\n        results = new ConstituencyResult[](constituencyIds.length);\n\n        for (uint256 i = 0; i < constituencyIds.length; i++) {\n            require(\n                constituencyTallied[constituencyIds[i]],\n                \"ResultsTallier: constituency not tallied\"\n            );\n            results[i] = constituencyResults[constituencyIds[i]];\n        }\n\n        return results;\n    }\n\n    /**\n     * @dev Get multiple candidate results at once (only after finalization)\n     * @param candidateIds Array of candidate identifiers\n     * @return results Array of CandidateResult structs\n     */\n    function getBatchCandidateResults(uint256[] calldata candidateIds)\n        external\n        view\n        onlyWhenFinalized\n        returns (CandidateResult[] memory results)\n    {\n        results = new CandidateResult[](candidateIds.length);\n\n        for (uint256 i = 0; i < candidateIds.length; i++) {\n            require(\n                candidateResults[candidateIds[i]].candidateId > 0,\n                \"ResultsTallier: candidate not found\"\n            );\n            results[i] = candidateResults[candidateIds[i]];\n        }\n\n        return results;\n    }\n\n    /**\n     * @dev Get finalization status\n     * @return isFinalized Whether results are finalized\n     * @return timestamp When results were finalized\n     */\n    function getFinalizationStatus()\n        external\n        view\n        returns (bool isFinalized, uint256 timestamp)\n    {\n        return (resultsFinalized, finalizedAt);\n    }\n}\n",
  "sourcePath": "/Users/work/Maj/contracts/contracts/ResultsTallier.sol",
  "compiler": {
    "name": "solc",
    "version": "0.8.20+commit.a1b79de6.Emscripten.clang"
  },
  "schemaVersion": "3.4.16",
  "updatedAt": "2026-02-12T11:25:23.005Z",
  "networkType": "ethereum",
  "devdoc": {
    "details": "Tallies election results and handles tie detection Results are only available after finalization",
    "errors": {
      "OwnableInvalidOwner(address)": [
        {
          "details": "The owner is not a valid owner account. (eg. `address(0)`)"
        }
      ],
      "OwnableUnauthorizedAccount(address)": [
        {
          "details": "The caller account is not authorized to perform an operation."
        }
      ]
    },
    "kind": "dev",
    "methods": {
      "constructor": {
        "details": "Constructor",
        "params": {
          "_votingBooth": "Address of the VotingBooth contract"
        }
      },
      "finalizeResults()": {
        "details": "Finalize all results (makes them publicly viewable)"
      },
      "getBatchCandidateResults(uint256[])": {
        "details": "Get multiple candidate results at once (only after finalization)",
        "params": {
          "candidateIds": "Array of candidate identifiers"
        },
        "returns": {
          "results": "Array of CandidateResult structs"
        }
      },
      "getBatchConstituencyResults(uint256[])": {
        "details": "Get multiple constituency results at once (only after finalization)",
        "params": {
          "constituencyIds": "Array of constituency identifiers"
        },
        "returns": {
          "results": "Array of ConstituencyResult structs"
        }
      },
      "getCandidateResult(uint256)": {
        "details": "Get candidate result (only after finalization)",
        "params": {
          "candidateId": "Candidate identifier"
        },
        "returns": {
          "result": "CandidateResult struct"
        }
      },
      "getConstituencyResult(uint256)": {
        "details": "Get constituency result (only after finalization)",
        "params": {
          "constituencyId": "Constituency identifier"
        },
        "returns": {
          "result": "ConstituencyResult struct"
        }
      },
      "getFinalizationStatus()": {
        "details": "Get finalization status",
        "returns": {
          "isFinalized": "Whether results are finalized",
          "timestamp": "When results were finalized"
        }
      },
      "isConstituencyTallied(uint256)": {
        "details": "Check if a specific constituency has been tallied",
        "params": {
          "constituencyId": "Constituency identifier"
        },
        "returns": {
          "_0": "bool True if tallied"
        }
      },
      "owner()": {
        "details": "Returns the address of the current owner."
      },
      "renounceOwnership()": {
        "details": "Leaves the contract without owner. It will not be possible to call `onlyOwner` functions. Can only be called by the current owner. NOTE: Renouncing ownership will leave the contract without an owner, thereby disabling any functionality that is only available to the owner."
      },
      "tallyConstituency(uint256,uint256[],uint256)": {
        "details": "Tally results for a constituency",
        "params": {
          "candidateIds": "Array of all candidate IDs in this constituency",
          "constituencyId": "Constituency identifier",
          "expectedTotalVotes": "Expected total votes (for validation)"
        }
      },
      "transferOwnership(address)": {
        "details": "Transfers ownership of the contract to a new account (`newOwner`). Can only be called by the current owner."
      }
    },
    "title": "ResultsTallier",
    "version": 1
  },
  "userdoc": {
    "kind": "user",
    "methods": {},
    "version": 1
  }
}