{
  "contractName": "VoterRegistry",
  "abi": [
    {
      "inputs": [
        {
          "internalType": "address",
          "name": "initialController",
          "type": "address"
        }
      ],
      "stateMutability": "nonpayable",
      "type": "constructor"
    },
    {
      "inputs": [
        {
          "internalType": "address",
          "name": "owner",
          "type": "address"
        }
      ],
      "name": "OwnableInvalidOwner",
      "type": "error"
    },
    {
      "inputs": [
        {
          "internalType": "address",
          "name": "account",
          "type": "address"
        }
      ],
      "name": "OwnableUnauthorizedAccount",
      "type": "error"
    },
    {
      "anonymous": false,
      "inputs": [
        {
          "indexed": true,
          "internalType": "address",
          "name": "controller",
          "type": "address"
        }
      ],
      "name": "ElectionControllerSet",
      "type": "event"
    },
    {
      "anonymous": false,
      "inputs": [
        {
          "indexed": true,
          "internalType": "address",
          "name": "previousOwner",
          "type": "address"
        },
        {
          "indexed": true,
          "internalType": "address",
          "name": "newOwner",
          "type": "address"
        }
      ],
      "name": "OwnershipTransferred",
      "type": "event"
    },
    {
      "anonymous": false,
      "inputs": [
        {
          "indexed": false,
          "internalType": "bool",
          "name": "isOpen",
          "type": "bool"
        }
      ],
      "name": "RegistrationStatusChanged",
      "type": "event"
    },
    {
      "anonymous": false,
      "inputs": [
        {
          "indexed": true,
          "internalType": "bytes32",
          "name": "voterHash",
          "type": "bytes32"
        },
        {
          "indexed": false,
          "internalType": "uint256",
          "name": "timestamp",
          "type": "uint256"
        }
      ],
      "name": "VoterMarkedVoted",
      "type": "event"
    },
    {
      "anonymous": false,
      "inputs": [
        {
          "indexed": true,
          "internalType": "bytes32",
          "name": "voterHash",
          "type": "bytes32"
        },
        {
          "indexed": true,
          "internalType": "uint256",
          "name": "constituencyId",
          "type": "uint256"
        },
        {
          "indexed": false,
          "internalType": "uint256",
          "name": "timestamp",
          "type": "uint256"
        }
      ],
      "name": "VoterRegistered",
      "type": "event"
    },
    {
      "inputs": [
        {
          "internalType": "uint256",
          "name": "",
          "type": "uint256"
        }
      ],
      "name": "constituencyRegisteredCount",
      "outputs": [
        {
          "internalType": "uint256",
          "name": "",
          "type": "uint256"
        }
      ],
      "stateMutability": "view",
      "type": "function",
      "constant": true
    },
    {
      "inputs": [
        {
          "internalType": "uint256",
          "name": "",
          "type": "uint256"
        }
      ],
      "name": "constituencyVotedCount",
      "outputs": [
        {
          "internalType": "uint256",
          "name": "",
          "type": "uint256"
        }
      ],
      "stateMutability": "view",
      "type": "function",
      "constant": true
    },
    {
      "inputs": [],
      "name": "electionController",
      "outputs": [
        {
          "internalType": "address",
          "name": "",
          "type": "address"
        }
      ],
      "stateMutability": "view",
      "type": "function",
      "constant": true
    },
    {
      "inputs": [],
      "name": "owner",
      "outputs": [
        {
          "internalType": "address",
          "name": "",
          "type": "address"
        }
      ],
      "stateMutability": "view",
      "type": "function",
      "constant": true
    },
    {
      "inputs": [],
      "name": "registrationOpen",
      "outputs": [
        {
          "internalType": "bool",
          "name": "",
          "type": "bool"
        }
      ],
      "stateMutability": "view",
      "type": "function",
      "constant": true
    },
    {
      "inputs": [],
      "name": "renounceOwnership",
      "outputs": [],
      "stateMutability": "nonpayable",
      "type": "function"
    },
    {
      "inputs": [],
      "name": "totalRegistered",
      "outputs": [
        {
          "internalType": "uint256",
          "name": "",
          "type": "uint256"
        }
      ],
      "stateMutability": "view",
      "type": "function",
      "constant": true
    },
    {
      "inputs": [],
      "name": "totalVoted",
      "outputs": [
        {
          "internalType": "uint256",
          "name": "",
          "type": "uint256"
        }
      ],
      "stateMutability": "view",
      "type": "function",
      "constant": true
    },
    {
      "inputs": [
        {
          "internalType": "address",
          "name": "newOwner",
          "type": "address"
        }
      ],
      "name": "transferOwnership",
      "outputs": [],
      "stateMutability": "nonpayable",
      "type": "function"
    },
    {
      "inputs": [
        {
          "internalType": "address",
          "name": "_controller",
          "type": "address"
        }
      ],
      "name": "setElectionController",
      "outputs": [],
      "stateMutability": "nonpayable",
      "type": "function"
    },
    {
      "inputs": [
        {
          "internalType": "bytes32",
          "name": "voterHash",
          "type": "bytes32"
        },
        {
          "internalType": "uint256",
          "name": "constituencyId",
          "type": "uint256"
        }
      ],
      "name": "registerVoter",
      "outputs": [],
      "stateMutability": "nonpayable",
      "type": "function"
    },
    {
      "inputs": [
        {
          "internalType": "bytes32",
          "name": "voterHash",
          "type": "bytes32"
        }
      ],
      "name": "markVoted",
      "outputs": [],
      "stateMutability": "nonpayable",
      "type": "function"
    },
    {
      "inputs": [
        {
          "internalType": "bytes32",
          "name": "voterHash",
          "type": "bytes32"
        }
      ],
      "name": "isEligible",
      "outputs": [
        {
          "internalType": "bool",
          "name": "",
          "type": "bool"
        }
      ],
      "stateMutability": "view",
      "type": "function",
      "constant": true
    },
    {
      "inputs": [
        {
          "internalType": "bytes32",
          "name": "voterHash",
          "type": "bytes32"
        }
      ],
      "name": "getVoterRecord",
      "outputs": [
        {
          "components": [
            {
              "internalType": "bool",
              "name": "isRegistered",
              "type": "bool"
            },
            {
              "internalType": "bool",
              "name": "hasVoted",
              "type": "bool"
            },
            {
              "internalType": "uint256",
              "name": "constituencyId",
              "type": "uint256"
            },
            {
              "internalType": "uint256",
              "name": "registeredAt",
              "type": "uint256"
            },
            {
              "internalType": "uint256",
              "name": "votedAt",
              "type": "uint256"
            }
          ],
          "internalType": "struct VoterRegistry.VoterRecord",
          "name": "",
          "type": "tuple"
        }
      ],
      "stateMutability": "view",
      "type": "function",
      "constant": true
    },
    {
      "inputs": [
        {
          "internalType": "uint256",
          "name": "constituencyId",
          "type": "uint256"
        }
      ],
      "name": "getConstituencyStats",
      "outputs": [
        {
          "internalType": "uint256",
          "name": "registered",
          "type": "uint256"
        },
        {
          "internalType": "uint256",
          "name": "voted",
          "type": "uint256"
        }
      ],
      "stateMutability": "view",
      "type": "function",
      "constant": true
    },
    {
      "inputs": [
        {
          "internalType": "bool",
          "name": "isOpen",
          "type": "bool"
        }
      ],
      "name": "setRegistrationStatus",
      "outputs": [],
      "stateMutability": "nonpayable",
      "type": "function"
    },
    {
      "inputs": [],
      "name": "closeRegistration",
      "outputs": [],
      "stateMutability": "nonpayable",
      "type": "function"
    },
    {
      "inputs": [],
      "name": "getGlobalStats",
      "outputs": [
        {
          "internalType": "uint256",
          "name": "_totalRegistered",
          "type": "uint256"
        },
        {
          "internalType": "uint256",
          "name": "_totalVoted",
          "type": "uint256"
        },
        {
          "internalType": "uint256",
          "name": "turnoutBasisPoints",
          "type": "uint256"
        }
      ],
      "stateMutability": "view",
      "type": "function",
      "constant": true
    }
  ],
  "bytecode": "0x608060405234801561001057600080fd5b50604051610ca7380380610ca783398101604081905261002f916100dc565b338061005557604051631e4fbdf760e01b81526000600482015260240160405180910390fd5b61005e8161008c565b50600680546001600160a01b03909216610100026001600160a81b031990921691909117600117905561010c565b600080546001600160a01b038381166001600160a01b0319831681178455604051919092169283917f8be0079c531659141344cd1fd0a4f28419497f9722a3daafe3b4186f6b6457e09190a35050565b6000602082840312156100ee57600080fd5b81516001600160a01b038116811461010557600080fd5b9392505050565b610b8c8061011b6000396000f3fe608060405234801561001057600080fd5b50600436106101165760003560e01c806379e09e59116100a2578063b05a3d9311610071578063b05a3d9314610278578063b3a2273f14610298578063cd0c0139146102a1578063d47208ee146102fa578063f2fde38b1461030d57600080fd5b806379e09e59146102435780637dc673bc146102565780638da5cb5b1461025e578063927416c01461026f57600080fd5b8063640511dc116100e9578063640511dc1461019b5780636b4169c3146101c95780636de9bedd146101ec578063715018a61461022e578063736f88cd1461023657600080fd5b80631fba2d4f1461011b5780633c74e0d9146101305780634af94278146101585780634ee3aaa11461016b575b600080fd5b61012e610129366004610a61565b610320565b005b61014361013e366004610a61565b610526565b60405190151581526020015b60405180910390f35b61012e610166366004610a7a565b61055e565b6006546101839061010090046001600160a01b031681565b6040516001600160a01b03909116815260200161014f565b6101bb6101a9366004610a61565b60026020526000908152604090205481565b60405190815260200161014f565b6101d1610627565b6040805193845260208401929092529082015260600161014f565b6102196101fa366004610a61565b6000908152600260209081526040808320546003909252909120549091565b6040805192835260208301919091520161014f565b61012e61065b565b6006546101439060ff1681565b61012e610251366004610aaa565b61066f565b61012e610882565b6000546001600160a01b0316610183565b6101bb60045481565b6101bb610286366004610a61565b60036020526000908152604090205481565b6101bb60055481565b6102b46102af366004610a61565b6108ca565b60405161014f9190600060a08201905082511515825260208301511515602083015260408301516040830152606083015160608301526080830151608083015292915050565b61012e610308366004610acc565b610957565b61012e61031b366004610a7a565b6109a6565b6000546001600160a01b0316331480610348575060065461010090046001600160a01b031633145b6103a95760405162461bcd60e51b815260206004820152602760248201527f566f74657252656769737472793a2063616c6c6572206973206e6f74206175746044820152661a1bdc9a5e995960ca1b60648201526084015b60405180910390fd5b60008181526001602052604090205460ff166104135760405162461bcd60e51b815260206004820152602360248201527f566f74657252656769737472793a20766f746572206e6f7420726567697374656044820152621c995960ea1b60648201526084016103a0565b600081815260016020526040902054610100900460ff16156104865760405162461bcd60e51b815260206004820152602660248201527f566f74657252656769737472793a20766f7465722068617320616c7265616479604482015265081d9bdd195960d21b60648201526084016103a0565b6000818152600160205260408120805461ff0019166101001781554260039091015560058054916104b683610b04565b909155505060008181526001602081815260408084209092015483526003905281208054916104e483610b04565b9190505550807fafafbc3547e476f509346c8d8fea82c672ebb805bc60c6f13d560dd1719687904260405161051b91815260200190565b60405180910390a250565b60008181526001602052604081205460ff1680156105585750600082815260016020526040902054610100900460ff16155b92915050565b6105666109e4565b6001600160a01b0381166105d55760405162461bcd60e51b815260206004820152603060248201527f566f74657252656769737472793a20636f6e74726f6c6c65722063616e6e6f7460448201526f206265207a65726f206164647265737360801b60648201526084016103a0565b60068054610100600160a81b0319166101006001600160a01b038416908102919091179091556040517f4f4838bcfb520a8d10d405d172983341ad2804268486e94861c55d10c67b420090600090a250565b60045460055460008215610653578261064283612710610b1d565b61064c9190610b34565b9050909192565b506000909192565b6106636109e4565b61066d6000610a11565b565b6106776109e4565b60065460ff166106d75760405162461bcd60e51b815260206004820152602560248201527f566f74657252656769737472793a20726567697374726174696f6e20697320636044820152641b1bdcd95960da1b60648201526084016103a0565b8161072e5760405162461bcd60e51b815260206004820152602160248201527f566f74657252656769737472793a20696e76616c696420766f746572206861736044820152600d60fb1b60648201526084016103a0565b60008281526001602052604090205460ff161561079d5760405162461bcd60e51b815260206004820152602760248201527f566f74657252656769737472793a20766f74657220616c7265616479207265676044820152661a5cdd195c995960ca1b60648201526084016103a0565b6040805160a0810182526001808252600060208084018281528486018781524260608701908152608087018581528a86529386905296842095518654925161ffff1990931690151561ff001916176101009215159290920291909117855551928401929092559251600283015551600390910155600480549161081f83610b04565b9091555050600081815260026020526040812080549161083e83610b04565b919050555080827fd0577b45280cacebd8346ec8cbf78af45ca04c7480bc3064591a188f93eaf30c4260405161087691815260200190565b60405180910390a35050565b61088a6109e4565b6006805460ff19169055604051600081527f1a30f630d0950ddfc90d43ec4e405fd012ddb4ba669dd2bd5e95439631c4221f9060200160405180910390a1565b6109006040518060a001604052806000151581526020016000151581526020016000815260200160008152602001600081525090565b50600090815260016020818152604092839020835160a081018552815460ff808216151583526101009091041615159281019290925291820154928101929092526002810154606083015260030154608082015290565b61095f6109e4565b6006805460ff19168215159081179091556040519081527f1a30f630d0950ddfc90d43ec4e405fd012ddb4ba669dd2bd5e95439631c4221f9060200160405180910390a150565b6109ae6109e4565b6001600160a01b0381166109d857604051631e4fbdf760e01b8152600060048201526024016103a0565b6109e181610a11565b50565b6000546001600160a01b0316331461066d5760405163118cdaa760e01b81523360048201526024016103a0565b600080546001600160a01b038381166001600160a01b0319831681178455604051919092169283917f8be0079c531659141344cd1fd0a4f28419497f9722a3daafe3b4186f6b6457e09190a35050565b600060208284031215610a7357600080fd5b5035919050565b600060208284031215610a8c57600080fd5b81356001600160a01b0381168114610aa357600080fd5b9392505050565b60008060408385031215610abd57600080fd5b50508035926020909101359150565b600060208284031215610ade57600080fd5b81358015158114610aa357600080fd5b634e487b7160e01b600052601160045260246000fd5b600060018201610b1657610b16610aee565b5060010190565b808202811582820484141761055857610558610aee565b600082610b5157634e487b7160e01b600052601260045260246000fd5b50049056fea264697066735822122037951d030788c776df16b1156a81a1387466471ef3ae880172e9823ae17b362064736f6c63430008140033",
  "immutableReferences": {},
  "source": "// SPDX-License-Identifier: MIT\npragma solidity ^0.8.20;\n\nimport \"@openzeppelin/contracts/access/Ownable.sol\";\n\n/**\n * @title VoterRegistry\n * @dev Manages voter registration and eligibility for elections\n * Stores voter records with hashed identities for privacy\n */\ncontract VoterRegistry is Ownable {\n    struct VoterRecord {\n        bool isRegistered;\n        bool hasVoted;\n        uint256 constituencyId;\n        uint256 registeredAt;\n        uint256 votedAt;\n    }\n\n    // Mapping: voterHash => VoterRecord\n    mapping(bytes32 => VoterRecord) private voters;\n\n    // Constituency statistics\n    mapping(uint256 => uint256) public constituencyRegisteredCount;\n    mapping(uint256 => uint256) public constituencyVotedCount;\n\n    // Global statistics\n    uint256 public totalRegistered;\n    uint256 public totalVoted;\n    bool public registrationOpen;\n\n    // Authorized contracts that can mark voters as voted\n    address public electionController;\n\n    // Events\n    event VoterRegistered(bytes32 indexed voterHash, uint256 indexed constituencyId, uint256 timestamp);\n    event VoterMarkedVoted(bytes32 indexed voterHash, uint256 timestamp);\n    event RegistrationStatusChanged(bool isOpen);\n    event ElectionControllerSet(address indexed controller);\n\n    /**\n     * @dev Constructor sets initial owner and opens registration\n     * @param initialController Initial election controller address\n     */\n    constructor(address initialController) Ownable(msg.sender) {\n        registrationOpen = true;\n        electionController = initialController;\n    }\n\n    /**\n     * @dev Modifier to restrict access to owner or authorized controller\n     */\n    modifier onlyAuthorized() {\n        require(\n            msg.sender == owner() || msg.sender == electionController,\n            \"VoterRegistry: caller is not authorized\"\n        );\n        _;\n    }\n\n    /**\n     * @dev Set the election controller address\n     * @param _controller Address of the election controller\n     */\n    function setElectionController(address _controller) external onlyOwner {\n        require(_controller != address(0), \"VoterRegistry: controller cannot be zero address\");\n        electionController = _controller;\n        emit ElectionControllerSet(_controller);\n    }\n\n    /**\n     * @dev Register a new voter with hashed identity\n     * @param voterHash Keccak256 hash of voter identity\n     * @param constituencyId Constituency ID the voter belongs to\n     */\n    function registerVoter(bytes32 voterHash, uint256 constituencyId) external onlyOwner {\n        require(registrationOpen, \"VoterRegistry: registration is closed\");\n        require(voterHash != bytes32(0), \"VoterRegistry: invalid voter hash\");\n        require(!voters[voterHash].isRegistered, \"VoterRegistry: voter already registered\");\n\n        voters[voterHash] = VoterRecord({\n            isRegistered: true,\n            hasVoted: false,\n            constituencyId: constituencyId,\n            registeredAt: block.timestamp,\n            votedAt: 0\n        });\n\n        totalRegistered++;\n        constituencyRegisteredCount[constituencyId]++;\n\n        emit VoterRegistered(voterHash, constituencyId, block.timestamp);\n    }\n\n    /**\n     * @dev Mark a voter as having voted\n     * @param voterHash Keccak256 hash of voter identity\n     */\n    function markVoted(bytes32 voterHash) external onlyAuthorized {\n        require(voters[voterHash].isRegistered, \"VoterRegistry: voter not registered\");\n        require(!voters[voterHash].hasVoted, \"VoterRegistry: voter has already voted\");\n\n        voters[voterHash].hasVoted = true;\n        voters[voterHash].votedAt = block.timestamp;\n\n        totalVoted++;\n        constituencyVotedCount[voters[voterHash].constituencyId]++;\n\n        emit VoterMarkedVoted(voterHash, block.timestamp);\n    }\n\n    /**\n     * @dev Check if a voter is eligible to vote\n     * @param voterHash Keccak256 hash of voter identity\n     * @return bool True if voter is registered and has not voted\n     */\n    function isEligible(bytes32 voterHash) external view returns (bool) {\n        return voters[voterHash].isRegistered && !voters[voterHash].hasVoted;\n    }\n\n    /**\n     * @dev Get complete voter record\n     * @param voterHash Keccak256 hash of voter identity\n     * @return VoterRecord struct\n     */\n    function getVoterRecord(bytes32 voterHash) external view returns (VoterRecord memory) {\n        return voters[voterHash];\n    }\n\n    /**\n     * @dev Get constituency statistics\n     * @param constituencyId Constituency ID\n     * @return registered Number of registered voters\n     * @return voted Number of voters who have voted\n     */\n    function getConstituencyStats(uint256 constituencyId)\n        external\n        view\n        returns (uint256 registered, uint256 voted)\n    {\n        return (\n            constituencyRegisteredCount[constituencyId],\n            constituencyVotedCount[constituencyId]\n        );\n    }\n\n    /**\n     * @dev Set registration status\n     * @param isOpen True to open registration, false to close\n     */\n    function setRegistrationStatus(bool isOpen) external onlyOwner {\n        registrationOpen = isOpen;\n        emit RegistrationStatusChanged(isOpen);\n    }\n\n    /**\n     * @dev Close registration (convenience function)\n     */\n    function closeRegistration() external onlyOwner {\n        registrationOpen = false;\n        emit RegistrationStatusChanged(false);\n    }\n\n    /**\n     * @dev Get global voting statistics\n     * @return _totalRegistered Total registered voters\n     * @return _totalVoted Total voters who have voted\n     * @return turnoutBasisPoints Turnout percentage in basis points (e.g., 6500 = 65.00%)\n     */\n    function getGlobalStats()\n        external\n        view\n        returns (\n            uint256 _totalRegistered,\n            uint256 _totalVoted,\n            uint256 turnoutBasisPoints\n        )\n    {\n        _totalRegistered = totalRegistered;\n        _totalVoted = totalVoted;\n\n        if (_totalRegistered > 0) {\n            turnoutBasisPoints = (_totalVoted * 10000) / _totalRegistered;\n        } else {\n            turnoutBasisPoints = 0;\n        }\n\n        return (_totalRegistered, _totalVoted, turnoutBasisPoints);\n    }\n}\n",
  "sourcePath": "/Users/work/Maj/contracts/contracts/VoterRegistry.sol",
  "compiler": {
    "name": "solc",
    "version": "0.8.20+commit.a1b79de6.Emscripten.clang"
  },
  "schemaVersion": "3.4.16",
  "updatedAt": "2026-02-12T11:25:22.978Z",
  "networkType": "ethereum",
  "devdoc": {
    "details": "Manages voter registration and eligibility for elections Stores voter records with hashed identities for privacy",
    "errors": {
      "OwnableInvalidOwner(address)": [
        {
          "details": "The owner is not a valid owner account. (eg. `address(0)`)"
        }
      ],
      "OwnableUnauthorizedAccount(address)": [
        {
          "details": "The caller account is not authorized to perform an operation."
        }
      ]
    },
    "kind": "dev",
    "methods": {
      "closeRegistration()": {
        "details": "Close registration (convenience function)"
      },
      "constructor": {
        "details": "Constructor sets initial owner and opens registration",
        "params": {
          "initialController": "Initial election controller address"
        }
      },
      "getConstituencyStats(uint256)": {
        "details": "Get constituency statistics",
        "params": {
          "constituencyId": "Constituency ID"
        },
        "returns": {
          "registered": "Number of registered voters",
          "voted": "Number of voters who have voted"
        }
      },
      "getGlobalStats()": {
        "details": "Get global voting statistics",
        "returns": {
          "_totalRegistered": "Total registered voters",
          "_totalVoted": "Total voters who have voted",
          "turnoutBasisPoints": "Turnout percentage in basis points (e.g., 6500 = 65.00%)"
        }
      },
      "getVoterRecord(bytes32)": {
        "details": "Get complete voter record",
        "params": {
          "voterHash": "Keccak256 hash of voter identity"
        },
        "returns": {
          "_0": "VoterRecord struct"
        }
      },
      "isEligible(bytes32)": {
        "details": "Check if a voter is eligible to vote",
        "params": {
          "voterHash": "Keccak256 hash of voter identity"
        },
        "returns": {
          "_0": "bool True if voter is registered and has not voted"
        }
      },
      "markVoted(bytes32)": {
        "details": "Mark a voter as having voted",
        "params": {
          "voterHash": "Keccak256 hash of voter identity"
        }
      },
      "owner()": {
        "details": "Returns the address of the current owner."
      },
      "registerVoter(bytes32,uint256)": {
        "details": "Register a new voter with hashed identity",
        "params": {
          "constituencyId": "Constituency ID the voter belongs to",
          "voterHash": "Keccak256 hash of voter identity"
        }
      },
      "renounceOwnership()": {
        "details": "Leaves the contract without owner. It will not be possible to call `onlyOwner` functions. Can only be called by the current owner. NOTE: Renouncing ownership will leave the contract without an owner, thereby disabling any functionality that is only available to the owner."
      },
      "setElectionController(address)": {
        "details": "Set the election controller address",
        "params": {
          "_controller": "Address of the election controller"
        }
      },
      "setRegistrationStatus(bool)": {
        "details": "Set registration status",
        "params": {
          "isOpen": "True to open registration, false to close"
        }
      },
      "transferOwnership(address)": {
        "details": "Transfers ownership of the contract to a new account (`newOwner`). Can only be called by the current owner."
      }
    },
    "title": "VoterRegistry",
    "version": 1
  },
  "userdoc": {
    "kind": "user",
    "methods": {},
    "version": 1
  }
}