{
  "contractName": "VotingBooth",
  "abi": [
    {
      "inputs": [
        {
          "internalType": "address",
          "name": "_voterRegistry",
          "type": "address"
        },
        {
          "internalType": "uint256",
          "name": "_electionId",
          "type": "uint256"
        }
      ],
      "stateMutability": "nonpayable",
      "type": "constructor"
    },
    {
      "inputs": [
        {
          "internalType": "address",
          "name": "owner",
          "type": "address"
        }
      ],
      "name": "OwnableInvalidOwner",
      "type": "error"
    },
    {
      "inputs": [
        {
          "internalType": "address",
          "name": "account",
          "type": "address"
        }
      ],
      "name": "OwnableUnauthorizedAccount",
      "type": "error"
    },
    {
      "anonymous": false,
      "inputs": [
        {
          "indexed": true,
          "internalType": "uint256",
          "name": "candidateId",
          "type": "uint256"
        },
        {
          "indexed": true,
          "internalType": "uint256",
          "name": "constituencyId",
          "type": "uint256"
        }
      ],
      "name": "CandidateRegistered",
      "type": "event"
    },
    {
      "anonymous": false,
      "inputs": [
        {
          "indexed": true,
          "internalType": "address",
          "name": "previousOwner",
          "type": "address"
        },
        {
          "indexed": true,
          "internalType": "address",
          "name": "newOwner",
          "type": "address"
        }
      ],
      "name": "OwnershipTransferred",
      "type": "event"
    },
    {
      "anonymous": false,
      "inputs": [
        {
          "indexed": true,
          "internalType": "uint256",
          "name": "candidateId",
          "type": "uint256"
        },
        {
          "indexed": true,
          "internalType": "uint256",
          "name": "constituencyId",
          "type": "uint256"
        },
        {
          "indexed": false,
          "internalType": "uint256",
          "name": "blockNumber",
          "type": "uint256"
        },
        {
          "indexed": false,
          "internalType": "uint256",
          "name": "timestamp",
          "type": "uint256"
        }
      ],
      "name": "VoteCast",
      "type": "event"
    },
    {
      "anonymous": false,
      "inputs": [
        {
          "indexed": false,
          "internalType": "uint256",
          "name": "closeTime",
          "type": "uint256"
        }
      ],
      "name": "VotingClosed",
      "type": "event"
    },
    {
      "anonymous": false,
      "inputs": [
        {
          "indexed": false,
          "internalType": "uint256",
          "name": "startTime",
          "type": "uint256"
        },
        {
          "indexed": false,
          "internalType": "uint256",
          "name": "endTime",
          "type": "uint256"
        }
      ],
      "name": "VotingOpened",
      "type": "event"
    },
    {
      "inputs": [],
      "name": "electionId",
      "outputs": [
        {
          "internalType": "uint256",
          "name": "",
          "type": "uint256"
        }
      ],
      "stateMutability": "view",
      "type": "function",
      "constant": true
    },
    {
      "inputs": [],
      "name": "owner",
      "outputs": [
        {
          "internalType": "address",
          "name": "",
          "type": "address"
        }
      ],
      "stateMutability": "view",
      "type": "function",
      "constant": true
    },
    {
      "inputs": [],
      "name": "renounceOwnership",
      "outputs": [],
      "stateMutability": "nonpayable",
      "type": "function"
    },
    {
      "inputs": [
        {
          "internalType": "address",
          "name": "newOwner",
          "type": "address"
        }
      ],
      "name": "transferOwnership",
      "outputs": [],
      "stateMutability": "nonpayable",
      "type": "function"
    },
    {
      "inputs": [
        {
          "internalType": "uint256",
          "name": "",
          "type": "uint256"
        },
        {
          "internalType": "uint256",
          "name": "",
          "type": "uint256"
        }
      ],
      "name": "validCandidates",
      "outputs": [
        {
          "internalType": "bool",
          "name": "",
          "type": "bool"
        }
      ],
      "stateMutability": "view",
      "type": "function",
      "constant": true
    },
    {
      "inputs": [],
      "name": "voterRegistry",
      "outputs": [
        {
          "internalType": "contract VoterRegistry",
          "name": "",
          "type": "address"
        }
      ],
      "stateMutability": "view",
      "type": "function",
      "constant": true
    },
    {
      "inputs": [],
      "name": "votingEndTime",
      "outputs": [
        {
          "internalType": "uint256",
          "name": "",
          "type": "uint256"
        }
      ],
      "stateMutability": "view",
      "type": "function",
      "constant": true
    },
    {
      "inputs": [],
      "name": "votingOpen",
      "outputs": [
        {
          "internalType": "bool",
          "name": "",
          "type": "bool"
        }
      ],
      "stateMutability": "view",
      "type": "function",
      "constant": true
    },
    {
      "inputs": [],
      "name": "votingStartTime",
      "outputs": [
        {
          "internalType": "uint256",
          "name": "",
          "type": "uint256"
        }
      ],
      "stateMutability": "view",
      "type": "function",
      "constant": true
    },
    {
      "inputs": [
        {
          "internalType": "uint256",
          "name": "candidateId",
          "type": "uint256"
        },
        {
          "internalType": "uint256",
          "name": "constituencyId",
          "type": "uint256"
        }
      ],
      "name": "registerCandidate",
      "outputs": [],
      "stateMutability": "nonpayable",
      "type": "function"
    },
    {
      "inputs": [
        {
          "internalType": "uint256",
          "name": "startTime",
          "type": "uint256"
        },
        {
          "internalType": "uint256",
          "name": "endTime",
          "type": "uint256"
        }
      ],
      "name": "openVoting",
      "outputs": [],
      "stateMutability": "nonpayable",
      "type": "function"
    },
    {
      "inputs": [],
      "name": "closeVoting",
      "outputs": [],
      "stateMutability": "nonpayable",
      "type": "function"
    },
    {
      "inputs": [
        {
          "internalType": "bytes32",
          "name": "voterHash",
          "type": "bytes32"
        },
        {
          "internalType": "uint256",
          "name": "candidateId",
          "type": "uint256"
        },
        {
          "internalType": "uint256",
          "name": "constituencyId",
          "type": "uint256"
        }
      ],
      "name": "castVote",
      "outputs": [],
      "stateMutability": "nonpayable",
      "type": "function"
    },
    {
      "inputs": [
        {
          "internalType": "uint256",
          "name": "candidateId",
          "type": "uint256"
        }
      ],
      "name": "getVoteCount",
      "outputs": [
        {
          "internalType": "uint256",
          "name": "",
          "type": "uint256"
        }
      ],
      "stateMutability": "view",
      "type": "function",
      "constant": true
    },
    {
      "inputs": [
        {
          "internalType": "bytes32",
          "name": "voterHash",
          "type": "bytes32"
        }
      ],
      "name": "voterHasSubmitted",
      "outputs": [
        {
          "internalType": "bool",
          "name": "",
          "type": "bool"
        }
      ],
      "stateMutability": "view",
      "type": "function",
      "constant": true
    },
    {
      "inputs": [
        {
          "internalType": "uint256",
          "name": "constituencyId",
          "type": "uint256"
        },
        {
          "internalType": "uint256",
          "name": "candidateId",
          "type": "uint256"
        }
      ],
      "name": "isCandidateValid",
      "outputs": [
        {
          "internalType": "bool",
          "name": "",
          "type": "bool"
        }
      ],
      "stateMutability": "view",
      "type": "function",
      "constant": true
    },
    {
      "inputs": [],
      "name": "getVotingStatus",
      "outputs": [
        {
          "internalType": "bool",
          "name": "isOpen",
          "type": "bool"
        },
        {
          "internalType": "uint256",
          "name": "startTime",
          "type": "uint256"
        },
        {
          "internalType": "uint256",
          "name": "endTime",
          "type": "uint256"
        },
        {
          "internalType": "uint256",
          "name": "currentTime",
          "type": "uint256"
        }
      ],
      "stateMutability": "view",
      "type": "function",
      "constant": true
    },
    {
      "inputs": [
        {
          "internalType": "uint256[]",
          "name": "candidateIds",
          "type": "uint256[]"
        },
        {
          "internalType": "uint256[]",
          "name": "constituencyIds",
          "type": "uint256[]"
        }
      ],
      "name": "batchRegisterCandidates",
      "outputs": [],
      "stateMutability": "nonpayable",
      "type": "function"
    }
  ],
  "bytecode": "0x608060405234801561001057600080fd5b506040516110ab3803806110ab83398101604081905261002f91610147565b338061005657604051631e4fbdf760e01b8152600060048201526024015b60405180910390fd5b61005f816100f7565b506001600160a01b0382166100c45760405162461bcd60e51b815260206004820152602560248201527f566f74696e67426f6f74683a20696e76616c6964207265676973747279206164604482015264647265737360d81b606482015260840161004d565b600980546001600160a01b0319166001600160a01b0393909316929092179091556008556005805460ff19169055610181565b600080546001600160a01b038381166001600160a01b0319831681178455604051919092169283917f8be0079c531659141344cd1fd0a4f28419497f9722a3daafe3b4186f6b6457e09190a35050565b6000806040838503121561015a57600080fd5b82516001600160a01b038116811461017157600080fd5b6020939093015192949293505050565b610f1b806101906000396000f3fe608060405234801561001057600080fd5b50600436106101165760003560e01c8063715018a6116100a2578063be60040e11610071578063be60040e1461026d578063c631b29214610280578063f2fde38b14610288578063fb9e1c6d1461029b578063fd72ad25146102be57600080fd5b8063715018a6146102205780638da5cb5b14610228578063a95824b41461024d578063b2c2f2e81461025a57600080fd5b806335c60cdb116100e957806335c60cdb1461018757806339773af31461019c578063581c281c146101ca5780635d6e5052146101fa57806364cae0911461020d57600080fd5b8063051364d41461011b5780631bb3ae4c146101375780631ea736e0146101755780632019a6081461017e575b600080fd5b61012460085481565b6040519081526020015b60405180910390f35b610165610145366004610c50565b600091825260046020908152604080842092845291905290205460ff1690565b604051901515815260200161012e565b61012460075481565b61012460065481565b61019a610195366004610c72565b6102d1565b005b6101656101aa366004610c50565b600460209081526000928352604080842090915290825290205460ff1681565b6005546006546007546040805160ff9094161515845260208401929092529082015242606082015260800161012e565b61019a610208366004610c50565b6106a0565b61019a61021b366004610c50565b610777565b61019a6108e7565b6000546001600160a01b03165b6040516001600160a01b03909116815260200161012e565b6005546101659060ff1681565b610124610268366004610c9e565b6108fb565b600954610235906001600160a01b031681565b61019a61096e565b61019a610296366004610cb7565b610a07565b6101656102a9366004610c9e565b60009081526003602052604090205460ff1690565b61019a6102cc366004610d33565b610a45565b60055460ff166103285760405162461bcd60e51b815260206004820152601f60248201527f566f74696e67426f6f74683a20766f74696e67206973206e6f74206f70656e0060448201526064015b60405180910390fd5b6006544210156103865760405162461bcd60e51b815260206004820152602360248201527f566f74696e67426f6f74683a20766f74696e6720686173206e6f7420737461726044820152621d195960ea1b606482015260840161031f565b6007544211156103d85760405162461bcd60e51b815260206004820152601d60248201527f566f74696e67426f6f74683a20766f74696e672068617320656e646564000000604482015260640161031f565b600954604051633c74e0d960e01b8152600481018590526001600160a01b0390911690633c74e0d990602401602060405180830381865afa158015610421573d6000803e3d6000fd5b505050506040513d601f19601f820116820180604052508101906104459190610d9f565b6104915760405162461bcd60e51b815260206004820152601f60248201527f566f74696e67426f6f74683a20766f746572206e6f7420656c696769626c6500604482015260640161031f565b60008381526003602052604090205460ff16156105065760405162461bcd60e51b815260206004820152602d60248201527f566f74696e67426f6f74683a20766f7465722068617320616c7265616479207360448201526c75626d697474656420766f746560981b606482015260840161031f565b600081815260046020908152604080832085845290915290205460ff166105875760405162461bcd60e51b815260206004820152602f60248201527f566f74696e67426f6f74683a20696e76616c69642063616e646964617465206660448201526e6f7220636f6e7374697475656e637960881b606482015260840161031f565b604080516080810182528381526020808201848152428385019081524360608501908152600089815260018086528782209651875593518685015591516002808701919091559051600395860155938352848120805460ff19169092179091558581529190529081208054916105fc83610dc1565b9091555050600954604051631fba2d4f60e01b8152600481018590526001600160a01b0390911690631fba2d4f90602401600060405180830381600087803b15801561064757600080fd5b505af115801561065b573d6000803e3d6000fd5b5050604080514381524260208201528493508592507f2327a15d67e277c37565fa2884c3b26a1013ceff86bc0214b280225ba1be19a7910160405180910390a3505050565b6106a8610bd3565b60055460ff16156106cb5760405162461bcd60e51b815260040161031f90610de8565b600082116106eb5760405162461bcd60e51b815260040161031f90610e45565b600081815260046020908152604080832085845290915290205460ff16156107255760405162461bcd60e51b815260040161031f90610e86565b6000818152600460209081526040808320858452909152808220805460ff1916600117905551829184917fe77d33cf0904a17bb7fba0ee072c9e243c59b7742d13d3fd331ee220808639a49190a35050565b61077f610bd3565b60055460ff16156107de5760405162461bcd60e51b815260206004820152602360248201527f566f74696e67426f6f74683a20766f74696e6720697320616c7265616479206f6044820152623832b760e91b606482015260840161031f565b81811161082d5760405162461bcd60e51b815260206004820152601f60248201527f566f74696e67426f6f74683a20696e76616c69642074696d652072616e676500604482015260640161031f565b428210156108935760405162461bcd60e51b815260206004820152602d60248201527f566f74696e67426f6f74683a2073746172742074696d65206d7573742062652060448201526c696e207468652066757475726560981b606482015260840161031f565b6005805460ff191660011790556006829055600781905560408051838152602081018390527f58fab80f37bcc4e49a4ad82322a4ca5d63424dcbfc6a23bff2366588fb524b5c910160405180910390a15050565b6108ef610bd3565b6108f96000610c00565b565b60055460009060ff161561095b5760405162461bcd60e51b815260206004820152602160248201527f566f74696e67426f6f74683a20766f74696e67206973207374696c6c206f70656044820152603760f91b606482015260840161031f565b5060009081526002602052604090205490565b610976610bd3565b60055460ff166109c85760405162461bcd60e51b815260206004820152601f60248201527f566f74696e67426f6f74683a20766f74696e67206973206e6f74206f70656e00604482015260640161031f565b6005805460ff191690556040514281527f8e9b46a70b3967bc9ea56ca61732c363a191fac88ae3ba011f4e030711c901179060200160405180910390a1565b610a0f610bd3565b6001600160a01b038116610a3957604051631e4fbdf760e01b81526000600482015260240161031f565b610a4281610c00565b50565b610a4d610bd3565b60055460ff1615610a705760405162461bcd60e51b815260040161031f90610de8565b828114610aca5760405162461bcd60e51b815260206004820152602260248201527f566f74696e67426f6f74683a206172726179206c656e677468206d69736d61746044820152610c6d60f31b606482015260840161031f565b60005b83811015610bcc576000858583818110610ae957610ae9610ecf565b9050602002013590506000848484818110610b0657610b06610ecf565b90506020020135905060008211610b2f5760405162461bcd60e51b815260040161031f90610e45565b600081815260046020908152604080832085845290915290205460ff1615610b695760405162461bcd60e51b815260040161031f90610e86565b6000818152600460209081526040808320858452909152808220805460ff1916600117905551829184917fe77d33cf0904a17bb7fba0ee072c9e243c59b7742d13d3fd331ee220808639a49190a350508080610bc490610dc1565b915050610acd565b5050505050565b6000546001600160a01b031633146108f95760405163118cdaa760e01b815233600482015260240161031f565b600080546001600160a01b038381166001600160a01b0319831681178455604051919092169283917f8be0079c531659141344cd1fd0a4f28419497f9722a3daafe3b4186f6b6457e09190a35050565b60008060408385031215610c6357600080fd5b50508035926020909101359150565b600080600060608486031215610c8757600080fd5b505081359360208301359350604090920135919050565b600060208284031215610cb057600080fd5b5035919050565b600060208284031215610cc957600080fd5b81356001600160a01b0381168114610ce057600080fd5b9392505050565b60008083601f840112610cf957600080fd5b50813567ffffffffffffffff811115610d1157600080fd5b6020830191508360208260051b8501011115610d2c57600080fd5b9250929050565b60008060008060408587031215610d4957600080fd5b843567ffffffffffffffff80821115610d6157600080fd5b610d6d88838901610ce7565b90965094506020870135915080821115610d8657600080fd5b50610d9387828801610ce7565b95989497509550505050565b600060208284031215610db157600080fd5b81518015158114610ce057600080fd5b600060018201610de157634e487b7160e01b600052601160045260246000fd5b5060010190565b6020808252603c908201527f566f74696e67426f6f74683a2063616e6e6f742072656769737465722063616e60408201527f64696461746573207768696c6520766f74696e67206973206f70656e00000000606082015260800190565b60208082526021908201527f566f74696e67426f6f74683a20696e76616c69642063616e64696461746520496040820152601160fa1b606082015260800190565b60208082526029908201527f566f74696e67426f6f74683a2063616e64696461746520616c726561647920726040820152681959da5cdd195c995960ba1b606082015260800190565b634e487b7160e01b600052603260045260246000fdfea2646970667358221220dd50e6b88b56e58eb9b814cfad92e83fd99946e59b07a5433330f183cdacca7c64736f6c63430008140033",
  "immutableReferences": {},
  "source": "// SPDX-License-Identifier: MIT\npragma solidity ^0.8.20;\n\nimport \"@openzeppelin/contracts/access/Ownable.sol\";\nimport \"./VoterRegistry.sol\";\n\n/**\n * @title VotingBooth\n * @dev Handles the voting process with privacy protections\n * Vote records are private to maintain ballot secrecy\n */\ncontract VotingBooth is Ownable {\n    struct VoteRecord {\n        uint256 candidateId;\n        uint256 constituencyId;\n        uint256 timestamp;\n        uint256 blockNumber;\n    }\n\n    // PRIVATE: Mapping of voterHash to their vote (maintains privacy)\n    mapping(bytes32 => VoteRecord) private voteRecords;\n\n    // PRIVATE: Vote counts per candidate (hidden until voting closes)\n    mapping(uint256 => uint256) private voteCounts;\n\n    // Track if voter has submitted (prevents double voting)\n    mapping(bytes32 => bool) private hasSubmitted;\n\n    // Candidate validation: constituencyId => candidateId => isValid\n    mapping(uint256 => mapping(uint256 => bool)) public validCandidates;\n\n    // Election state\n    bool public votingOpen;\n    uint256 public votingStartTime;\n    uint256 public votingEndTime;\n    uint256 public electionId;\n\n    // Reference to voter registry\n    VoterRegistry public voterRegistry;\n\n    // Events - NOTE: voterHash is NOT emitted to protect privacy\n    event VoteCast(\n        uint256 indexed candidateId,\n        uint256 indexed constituencyId,\n        uint256 blockNumber,\n        uint256 timestamp\n    );\n    event CandidateRegistered(uint256 indexed candidateId, uint256 indexed constituencyId);\n    event VotingOpened(uint256 startTime, uint256 endTime);\n    event VotingClosed(uint256 closeTime);\n\n    /**\n     * @dev Constructor\n     * @param _voterRegistry Address of the VoterRegistry contract\n     * @param _electionId Unique identifier for this election\n     */\n    constructor(address _voterRegistry, uint256 _electionId) Ownable(msg.sender) {\n        require(_voterRegistry != address(0), \"VotingBooth: invalid registry address\");\n        voterRegistry = VoterRegistry(_voterRegistry);\n        electionId = _electionId;\n        votingOpen = false;\n    }\n\n    /**\n     * @dev Modifier to ensure voting is open\n     */\n    modifier onlyWhenVotingOpen() {\n        require(votingOpen, \"VotingBooth: voting is not open\");\n        require(block.timestamp >= votingStartTime, \"VotingBooth: voting has not started\");\n        require(block.timestamp <= votingEndTime, \"VotingBooth: voting has ended\");\n        _;\n    }\n\n    /**\n     * @dev Modifier to ensure voting is closed\n     */\n    modifier onlyWhenVotingClosed() {\n        require(!votingOpen, \"VotingBooth: voting is still open\");\n        _;\n    }\n\n    /**\n     * @dev Register a candidate for a constituency\n     * @param candidateId Unique candidate identifier\n     * @param constituencyId Constituency the candidate is running in\n     */\n    function registerCandidate(uint256 candidateId, uint256 constituencyId) external onlyOwner {\n        require(!votingOpen, \"VotingBooth: cannot register candidates while voting is open\");\n        require(candidateId > 0, \"VotingBooth: invalid candidate ID\");\n        require(!validCandidates[constituencyId][candidateId], \"VotingBooth: candidate already registered\");\n\n        validCandidates[constituencyId][candidateId] = true;\n        emit CandidateRegistered(candidateId, constituencyId);\n    }\n\n    /**\n     * @dev Open voting for a specified period\n     * @param startTime Unix timestamp when voting starts\n     * @param endTime Unix timestamp when voting ends\n     */\n    function openVoting(uint256 startTime, uint256 endTime) external onlyOwner {\n        require(!votingOpen, \"VotingBooth: voting is already open\");\n        require(endTime > startTime, \"VotingBooth: invalid time range\");\n        require(startTime >= block.timestamp, \"VotingBooth: start time must be in the future\");\n\n        votingOpen = true;\n        votingStartTime = startTime;\n        votingEndTime = endTime;\n\n        emit VotingOpened(startTime, endTime);\n    }\n\n    /**\n     * @dev Close voting (can be called early by owner if needed)\n     */\n    function closeVoting() external onlyOwner {\n        require(votingOpen, \"VotingBooth: voting is not open\");\n        votingOpen = false;\n        emit VotingClosed(block.timestamp);\n    }\n\n    /**\n     * @dev Cast a vote\n     * @param voterHash Keccak256 hash of voter identity\n     * @param candidateId ID of the candidate to vote for\n     * @param constituencyId Constituency ID of the voter\n     */\n    function castVote(\n        bytes32 voterHash,\n        uint256 candidateId,\n        uint256 constituencyId\n    ) external onlyWhenVotingOpen {\n        // Check voter eligibility through registry\n        require(\n            voterRegistry.isEligible(voterHash),\n            \"VotingBooth: voter not eligible\"\n        );\n\n        // Check voter hasn't already submitted in this contract\n        require(\n            !hasSubmitted[voterHash],\n            \"VotingBooth: voter has already submitted vote\"\n        );\n\n        // Validate candidate is registered for this constituency\n        require(\n            validCandidates[constituencyId][candidateId],\n            \"VotingBooth: invalid candidate for constituency\"\n        );\n\n        // Record the vote (private)\n        voteRecords[voterHash] = VoteRecord({\n            candidateId: candidateId,\n            constituencyId: constituencyId,\n            timestamp: block.timestamp,\n            blockNumber: block.number\n        });\n\n        // Mark as submitted\n        hasSubmitted[voterHash] = true;\n\n        // Increment vote count (private)\n        voteCounts[candidateId]++;\n\n        // Mark voter as voted in registry\n        voterRegistry.markVoted(voterHash);\n\n        // Emit event WITHOUT voterHash to protect privacy\n        emit VoteCast(candidateId, constituencyId, block.number, block.timestamp);\n    }\n\n    /**\n     * @dev Get vote count for a candidate (only after voting closes)\n     * @param candidateId Candidate identifier\n     * @return uint256 Number of votes received\n     */\n    function getVoteCount(uint256 candidateId)\n        external\n        view\n        onlyWhenVotingClosed\n        returns (uint256)\n    {\n        return voteCounts[candidateId];\n    }\n\n    /**\n     * @dev Check if a voter has submitted a vote\n     * @param voterHash Keccak256 hash of voter identity\n     * @return bool True if voter has submitted\n     */\n    function voterHasSubmitted(bytes32 voterHash) external view returns (bool) {\n        return hasSubmitted[voterHash];\n    }\n\n    /**\n     * @dev Check if a candidate is valid for a constituency\n     * @param constituencyId Constituency identifier\n     * @param candidateId Candidate identifier\n     * @return bool True if candidate is registered for this constituency\n     */\n    function isCandidateValid(uint256 constituencyId, uint256 candidateId)\n        external\n        view\n        returns (bool)\n    {\n        return validCandidates[constituencyId][candidateId];\n    }\n\n    /**\n     * @dev Get voting status and timing\n     * @return isOpen Whether voting is currently open\n     * @return startTime Voting start timestamp\n     * @return endTime Voting end timestamp\n     * @return currentTime Current block timestamp\n     */\n    function getVotingStatus()\n        external\n        view\n        returns (\n            bool isOpen,\n            uint256 startTime,\n            uint256 endTime,\n            uint256 currentTime\n        )\n    {\n        return (votingOpen, votingStartTime, votingEndTime, block.timestamp);\n    }\n\n    /**\n     * @dev Batch register multiple candidates (gas optimization)\n     * @param candidateIds Array of candidate IDs\n     * @param constituencyIds Array of corresponding constituency IDs\n     */\n    function batchRegisterCandidates(\n        uint256[] calldata candidateIds,\n        uint256[] calldata constituencyIds\n    ) external onlyOwner {\n        require(!votingOpen, \"VotingBooth: cannot register candidates while voting is open\");\n        require(\n            candidateIds.length == constituencyIds.length,\n            \"VotingBooth: array length mismatch\"\n        );\n\n        for (uint256 i = 0; i < candidateIds.length; i++) {\n            uint256 candidateId = candidateIds[i];\n            uint256 constituencyId = constituencyIds[i];\n\n            require(candidateId > 0, \"VotingBooth: invalid candidate ID\");\n            require(\n                !validCandidates[constituencyId][candidateId],\n                \"VotingBooth: candidate already registered\"\n            );\n\n            validCandidates[constituencyId][candidateId] = true;\n            emit CandidateRegistered(candidateId, constituencyId);\n        }\n    }\n}\n",
  "sourcePath": "/Users/work/Maj/contracts/contracts/VotingBooth.sol",
  "compiler": {
    "name": "solc",
    "version": "0.8.20+commit.a1b79de6.Emscripten.clang"
  },
  "schemaVersion": "3.4.16",
  "updatedAt": "2026-02-12T11:25:22.989Z",
  "networkType": "ethereum",
  "devdoc": {
    "details": "Handles the voting process with privacy protections Vote records are private to maintain ballot secrecy",
    "errors": {
      "OwnableInvalidOwner(address)": [
        {
          "details": "The owner is not a valid owner account. (eg. `address(0)`)"
        }
      ],
      "OwnableUnauthorizedAccount(address)": [
        {
          "details": "The caller account is not authorized to perform an operation."
        }
      ]
    },
    "kind": "dev",
    "methods": {
      "batchRegisterCandidates(uint256[],uint256[])": {
        "details": "Batch register multiple candidates (gas optimization)",
        "params": {
          "candidateIds": "Array of candidate IDs",
          "constituencyIds": "Array of corresponding constituency IDs"
        }
      },
      "castVote(bytes32,uint256,uint256)": {
        "details": "Cast a vote",
        "params": {
          "candidateId": "ID of the candidate to vote for",
          "constituencyId": "Constituency ID of the voter",
          "voterHash": "Keccak256 hash of voter identity"
        }
      },
      "closeVoting()": {
        "details": "Close voting (can be called early by owner if needed)"
      },
      "constructor": {
        "details": "Constructor",
        "params": {
          "_electionId": "Unique identifier for this election",
          "_voterRegistry": "Address of the VoterRegistry contract"
        }
      },
      "getVoteCount(uint256)": {
        "details": "Get vote count for a candidate (only after voting closes)",
        "params": {
          "candidateId": "Candidate identifier"
        },
        "returns": {
          "_0": "uint256 Number of votes received"
        }
      },
      "getVotingStatus()": {
        "details": "Get voting status and timing",
        "returns": {
          "currentTime": "Current block timestamp",
          "endTime": "Voting end timestamp",
          "isOpen": "Whether voting is currently open",
          "startTime": "Voting start timestamp"
        }
      },
      "isCandidateValid(uint256,uint256)": {
        "details": "Check if a candidate is valid for a constituency",
        "params": {
          "candidateId": "Candidate identifier",
          "constituencyId": "Constituency identifier"
        },
        "returns": {
          "_0": "bool True if candidate is registered for this constituency"
        }
      },
      "openVoting(uint256,uint256)": {
        "details": "Open voting for a specified period",
        "params": {
          "endTime": "Unix timestamp when voting ends",
          "startTime": "Unix timestamp when voting starts"
        }
      },
      "owner()": {
        "details": "Returns the address of the current owner."
      },
      "registerCandidate(uint256,uint256)": {
        "details": "Register a candidate for a constituency",
        "params": {
          "candidateId": "Unique candidate identifier",
          "constituencyId": "Constituency the candidate is running in"
        }
      },
      "renounceOwnership()": {
        "details": "Leaves the contract without owner. It will not be possible to call `onlyOwner` functions. Can only be called by the current owner. NOTE: Renouncing ownership will leave the contract without an owner, thereby disabling any functionality that is only available to the owner."
      },
      "transferOwnership(address)": {
        "details": "Transfers ownership of the contract to a new account (`newOwner`). Can only be called by the current owner."
      },
      "voterHasSubmitted(bytes32)": {
        "details": "Check if a voter has submitted a vote",
        "params": {
          "voterHash": "Keccak256 hash of voter identity"
        },
        "returns": {
          "_0": "bool True if voter has submitted"
        }
      }
    },
    "title": "VotingBooth",
    "version": 1
  },
  "userdoc": {
    "kind": "user",
    "methods": {},
    "version": 1
  }
}